{
	"Staking.sol": {
		"StakingRewards": {
			"abi": [
				{
					"inputs": [
						{
							"internalType": "address",
							"name": "_stakingtoken",
							"type": "address"
						},
						{
							"internalType": "address",
							"name": "_rewardstoken",
							"type": "address"
						}
					],
					"stateMutability": "nonpayable",
					"type": "constructor"
				},
				{
					"inputs": [
						{
							"internalType": "address",
							"name": "_account",
							"type": "address"
						}
					],
					"name": "earned",
					"outputs": [
						{
							"internalType": "uint256",
							"name": "",
							"type": "uint256"
						}
					],
					"stateMutability": "view",
					"type": "function"
				},
				{
					"inputs": [],
					"name": "getReward",
					"outputs": [],
					"stateMutability": "nonpayable",
					"type": "function"
				},
				{
					"inputs": [],
					"name": "lastTimeRewardsApplicable",
					"outputs": [
						{
							"internalType": "uint256",
							"name": "",
							"type": "uint256"
						}
					],
					"stateMutability": "view",
					"type": "function"
				},
				{
					"inputs": [
						{
							"internalType": "uint256",
							"name": "_amount",
							"type": "uint256"
						}
					],
					"name": "notifyRewrdsAmount",
					"outputs": [],
					"stateMutability": "nonpayable",
					"type": "function"
				},
				{
					"inputs": [],
					"name": "rewardperToken",
					"outputs": [
						{
							"internalType": "uint256",
							"name": "",
							"type": "uint256"
						}
					],
					"stateMutability": "view",
					"type": "function"
				},
				{
					"inputs": [
						{
							"internalType": "uint256",
							"name": "_duration",
							"type": "uint256"
						}
					],
					"name": "setRewardsDuration",
					"outputs": [],
					"stateMutability": "nonpayable",
					"type": "function"
				},
				{
					"inputs": [
						{
							"internalType": "uint256",
							"name": "_amount",
							"type": "uint256"
						}
					],
					"name": "stake",
					"outputs": [],
					"stateMutability": "nonpayable",
					"type": "function"
				},
				{
					"inputs": [
						{
							"internalType": "uint256",
							"name": "_amount",
							"type": "uint256"
						}
					],
					"name": "withdraw",
					"outputs": [],
					"stateMutability": "nonpayable",
					"type": "function"
				}
			],
			"devdoc": {
				"kind": "dev",
				"methods": {},
				"version": 1
			},
			"evm": {
				"assembly": "    /* \"Staking.sol\":116:4244  contract StakingRewards {... */\n  mstore(0x40, 0xe0)\n    /* \"Staking.sol\":1107:1298  constructor(address _stakingtoken, address _rewardstoken) {... */\n  callvalue\n  dup1\n  iszero\n  tag_1\n  jumpi\n  0x00\n  dup1\n  revert\ntag_1:\n  pop\n  mload(0x40)\n  sub(codesize, bytecodeSize)\n  dup1\n  bytecodeSize\n  dup4\n  codecopy\n  dup2\n  dup2\n  add\n  0x40\n  mstore\n  dup2\n  add\n  swap1\n  tag_2\n  swap2\n  swap1\n  tag_3\n  jump\t// in\ntag_2:\n    /* \"Staking.sol\":1185:1195  msg.sender */\n  caller\n    /* \"Staking.sol\":1175:1195  i_owner = msg.sender */\n  0xffffffffffffffffffffffffffffffffffffffff\n  and\n  0xc0\n  dup2\n  0xffffffffffffffffffffffffffffffffffffffff\n  and\n  dup2\n  mstore\n  pop\n  pop\n    /* \"Staking.sol\":1229:1242  _stakingtoken */\n  dup2\n    /* \"Staking.sol\":1205:1243  i_stakingToken = IERC20(_stakingtoken) */\n  0xffffffffffffffffffffffffffffffffffffffff\n  and\n  0x80\n  dup2\n  0xffffffffffffffffffffffffffffffffffffffff\n  and\n  dup2\n  mstore\n  pop\n  pop\n    /* \"Staking.sol\":1277:1290  _rewardstoken */\n  dup1\n    /* \"Staking.sol\":1253:1291  i_rewardsToken = IERC20(_rewardstoken) */\n  0xffffffffffffffffffffffffffffffffffffffff\n  and\n  0xa0\n  dup2\n  0xffffffffffffffffffffffffffffffffffffffff\n  and\n  dup2\n  mstore\n  pop\n  pop\n    /* \"Staking.sol\":1107:1298  constructor(address _stakingtoken, address _rewardstoken) {... */\n  pop\n  pop\n    /* \"Staking.sol\":116:4244  contract StakingRewards {... */\n  jump(tag_6)\n    /* \"#utility.yul\":88:205   */\ntag_8:\n    /* \"#utility.yul\":197:198   */\n  0x00\n    /* \"#utility.yul\":194:195   */\n  dup1\n    /* \"#utility.yul\":187:199   */\n  revert\n    /* \"#utility.yul\":334:460   */\ntag_10:\n    /* \"#utility.yul\":371:378   */\n  0x00\n    /* \"#utility.yul\":411:453   */\n  0xffffffffffffffffffffffffffffffffffffffff\n    /* \"#utility.yul\":404:409   */\n  dup3\n    /* \"#utility.yul\":400:454   */\n  and\n    /* \"#utility.yul\":389:454   */\n  swap1\n  pop\n    /* \"#utility.yul\":334:460   */\n  swap2\n  swap1\n  pop\n  jump\t// out\n    /* \"#utility.yul\":466:562   */\ntag_11:\n    /* \"#utility.yul\":503:510   */\n  0x00\n    /* \"#utility.yul\":532:556   */\n  tag_20\n    /* \"#utility.yul\":550:555   */\n  dup3\n    /* \"#utility.yul\":532:556   */\n  tag_10\n  jump\t// in\ntag_20:\n    /* \"#utility.yul\":521:556   */\n  swap1\n  pop\n    /* \"#utility.yul\":466:562   */\n  swap2\n  swap1\n  pop\n  jump\t// out\n    /* \"#utility.yul\":568:690   */\ntag_12:\n    /* \"#utility.yul\":641:665   */\n  tag_22\n    /* \"#utility.yul\":659:664   */\n  dup2\n    /* \"#utility.yul\":641:665   */\n  tag_11\n  jump\t// in\ntag_22:\n    /* \"#utility.yul\":634:639   */\n  dup2\n    /* \"#utility.yul\":631:666   */\n  eq\n    /* \"#utility.yul\":621:684   */\n  tag_23\n  jumpi\n    /* \"#utility.yul\":680:681   */\n  0x00\n    /* \"#utility.yul\":677:678   */\n  dup1\n    /* \"#utility.yul\":670:682   */\n  revert\n    /* \"#utility.yul\":621:684   */\ntag_23:\n    /* \"#utility.yul\":568:690   */\n  pop\n  jump\t// out\n    /* \"#utility.yul\":696:839   */\ntag_13:\n    /* \"#utility.yul\":753:758   */\n  0x00\n    /* \"#utility.yul\":784:790   */\n  dup2\n    /* \"#utility.yul\":778:791   */\n  mload\n    /* \"#utility.yul\":769:791   */\n  swap1\n  pop\n    /* \"#utility.yul\":800:833   */\n  tag_25\n    /* \"#utility.yul\":827:832   */\n  dup2\n    /* \"#utility.yul\":800:833   */\n  tag_12\n  jump\t// in\ntag_25:\n    /* \"#utility.yul\":696:839   */\n  swap3\n  swap2\n  pop\n  pop\n  jump\t// out\n    /* \"#utility.yul\":845:1352   */\ntag_3:\n    /* \"#utility.yul\":924:930   */\n  0x00\n    /* \"#utility.yul\":932:938   */\n  dup1\n    /* \"#utility.yul\":981:983   */\n  0x40\n    /* \"#utility.yul\":969:978   */\n  dup4\n    /* \"#utility.yul\":960:967   */\n  dup6\n    /* \"#utility.yul\":956:979   */\n  sub\n    /* \"#utility.yul\":952:984   */\n  slt\n    /* \"#utility.yul\":949:1068   */\n  iszero\n  tag_27\n  jumpi\n    /* \"#utility.yul\":987:1066   */\n  tag_28\n  tag_8\n  jump\t// in\ntag_28:\n    /* \"#utility.yul\":949:1068   */\ntag_27:\n    /* \"#utility.yul\":1107:1108   */\n  0x00\n    /* \"#utility.yul\":1132:1196   */\n  tag_29\n    /* \"#utility.yul\":1188:1195   */\n  dup6\n    /* \"#utility.yul\":1179:1185   */\n  dup3\n    /* \"#utility.yul\":1168:1177   */\n  dup7\n    /* \"#utility.yul\":1164:1186   */\n  add\n    /* \"#utility.yul\":1132:1196   */\n  tag_13\n  jump\t// in\ntag_29:\n    /* \"#utility.yul\":1122:1196   */\n  swap3\n  pop\n    /* \"#utility.yul\":1078:1206   */\n  pop\n    /* \"#utility.yul\":1245:1247   */\n  0x20\n    /* \"#utility.yul\":1271:1335   */\n  tag_30\n    /* \"#utility.yul\":1327:1334   */\n  dup6\n    /* \"#utility.yul\":1318:1324   */\n  dup3\n    /* \"#utility.yul\":1307:1316   */\n  dup7\n    /* \"#utility.yul\":1303:1325   */\n  add\n    /* \"#utility.yul\":1271:1335   */\n  tag_13\n  jump\t// in\ntag_30:\n    /* \"#utility.yul\":1261:1335   */\n  swap2\n  pop\n    /* \"#utility.yul\":1216:1345   */\n  pop\n    /* \"#utility.yul\":845:1352   */\n  swap3\n  pop\n  swap3\n  swap1\n  pop\n  jump\t// out\n    /* \"Staking.sol\":116:4244  contract StakingRewards {... */\ntag_6:\n  mload(0x80)\n  mload(0xa0)\n  mload(0xc0)\n  codecopy(0x00, dataOffset(sub_0), dataSize(sub_0))\n  0x00\n  assignImmutable(\"0xa3bcf8af6929b66d6da7ee355c48fd1cf926fd090bc75a4dcbf7bd8e365645e3\")\n  0x00\n  assignImmutable(\"0xcc193713febc75d3d9bd2f9ce113f403ff19633f15c8cdbcf79756ae23e77f9a\")\n  0x00\n  assignImmutable(\"0x043ab7193d962ca510e48770a5a13714f4684febe0e5affcfd1eb73cfed1f218\")\n  return(0x00, dataSize(sub_0))\nstop\n\nsub_0: assembly {\n        /* \"Staking.sol\":116:4244  contract StakingRewards {... */\n      mstore(0x40, 0x80)\n      callvalue\n      dup1\n      iszero\n      tag_1\n      jumpi\n      0x00\n      dup1\n      revert\n    tag_1:\n      pop\n      jumpi(tag_2, lt(calldatasize, 0x04))\n      shr(0xe0, calldataload(0x00))\n      dup1\n      0xbaf36830\n      gt\n      tag_11\n      jumpi\n      dup1\n      0xbaf36830\n      eq\n      tag_7\n      jumpi\n      dup1\n      0xcb7032ab\n      eq\n      tag_8\n      jumpi\n      dup1\n      0xcc1a378f\n      eq\n      tag_9\n      jumpi\n      dup1\n      0xedf26bc7\n      eq\n      tag_10\n      jumpi\n      jump(tag_2)\n    tag_11:\n      dup1\n      0x8cc262\n      eq\n      tag_3\n      jumpi\n      dup1\n      0x2e1a7d4d\n      eq\n      tag_4\n      jumpi\n      dup1\n      0x3d18b912\n      eq\n      tag_5\n      jumpi\n      dup1\n      0xa694fc3a\n      eq\n      tag_6\n      jumpi\n    tag_2:\n      0x00\n      dup1\n      revert\n        /* \"Staking.sol\":3659:3846  function earned(address _account) public view returns(uint256) {... */\n    tag_3:\n      tag_12\n      0x04\n      dup1\n      calldatasize\n      sub\n      dup2\n      add\n      swap1\n      tag_13\n      swap2\n      swap1\n      tag_14\n      jump\t// in\n    tag_13:\n      tag_15\n      jump\t// in\n    tag_12:\n      mload(0x40)\n      tag_16\n      swap2\n      swap1\n      tag_17\n      jump\t// in\n    tag_16:\n      mload(0x40)\n      dup1\n      swap2\n      sub\n      swap1\n      return\n        /* \"Staking.sol\":2927:3246  function withdraw(uint256 _amount) external updateReward(msg.sender) {... */\n    tag_4:\n      tag_18\n      0x04\n      dup1\n      calldatasize\n      sub\n      dup2\n      add\n      swap1\n      tag_19\n      swap2\n      swap1\n      tag_20\n      jump\t// in\n    tag_19:\n      tag_21\n      jump\t// in\n    tag_18:\n      stop\n        /* \"Staking.sol\":3852:4090  function getReward() external updateReward(msg.sender){... */\n    tag_5:\n      tag_22\n      tag_23\n      jump\t// in\n    tag_22:\n      stop\n        /* \"Staking.sol\":2588:2921  function stake(uint256 _amount) external updateReward(msg.sender) {... */\n    tag_6:\n      tag_24\n      0x04\n      dup1\n      calldatasize\n      sub\n      dup2\n      add\n      swap1\n      tag_25\n      swap2\n      swap1\n      tag_20\n      jump\t// in\n    tag_25:\n      tag_26\n      jump\t// in\n    tag_24:\n      stop\n        /* \"Staking.sol\":3381:3653  function rewardperToken() public view returns (uint256) {... */\n    tag_7:\n      tag_27\n      tag_28\n      jump\t// in\n    tag_27:\n      mload(0x40)\n      tag_29\n      swap2\n      swap1\n      tag_17\n      jump\t// in\n    tag_29:\n      mload(0x40)\n      dup1\n      swap2\n      sub\n      swap1\n      return\n        /* \"Staking.sol\":1691:2582  function notifyRewrdsAmount(uint256 _amount) external onlyOwner updateReward(address(0)){... */\n    tag_8:\n      tag_30\n      0x04\n      dup1\n      calldatasize\n      sub\n      dup2\n      add\n      swap1\n      tag_31\n      swap2\n      swap1\n      tag_20\n      jump\t// in\n    tag_31:\n      tag_32\n      jump\t// in\n    tag_30:\n      stop\n        /* \"Staking.sol\":1304:1574  function setRewardsDuration(uint256 _duration) external onlyOwner {... */\n    tag_9:\n      tag_33\n      0x04\n      dup1\n      calldatasize\n      sub\n      dup2\n      add\n      swap1\n      tag_34\n      swap2\n      swap1\n      tag_20\n      jump\t// in\n    tag_34:\n      tag_35\n      jump\t// in\n    tag_33:\n      stop\n        /* \"Staking.sol\":3252:3375  function lastTimeRewardsApplicable() public view returns (uint256) {... */\n    tag_10:\n      tag_36\n      tag_37\n      jump\t// in\n    tag_36:\n      mload(0x40)\n      tag_38\n      swap2\n      swap1\n      tag_17\n      jump\t// in\n    tag_38:\n      mload(0x40)\n      dup1\n      swap2\n      sub\n      swap1\n      return\n        /* \"Staking.sol\":3659:3846  function earned(address _account) public view returns(uint256) {... */\n    tag_15:\n        /* \"Staking.sol\":3713:3720  uint256 */\n      0x00\n        /* \"Staking.sol\":3822:3829  rewards */\n      0x06\n        /* \"Staking.sol\":3822:3839  rewards[_account] */\n      0x00\n        /* \"Staking.sol\":3830:3838  _account */\n      dup4\n        /* \"Staking.sol\":3822:3839  rewards[_account] */\n      0xffffffffffffffffffffffffffffffffffffffff\n      and\n      0xffffffffffffffffffffffffffffffffffffffff\n      and\n      dup2\n      mstore\n      0x20\n      add\n      swap1\n      dup2\n      mstore\n      0x20\n      add\n      0x00\n      keccak256\n      sload\n        /* \"Staking.sol\":3815:3819  1e18 */\n      0x0de0b6b3a7640000\n        /* \"Staking.sol\":3782:3800  UserRewardPerToken */\n      0x05\n        /* \"Staking.sol\":3782:3810  UserRewardPerToken[_account] */\n      0x00\n        /* \"Staking.sol\":3801:3809  _account */\n      dup6\n        /* \"Staking.sol\":3782:3810  UserRewardPerToken[_account] */\n      0xffffffffffffffffffffffffffffffffffffffff\n      and\n      0xffffffffffffffffffffffffffffffffffffffff\n      and\n      dup2\n      mstore\n      0x20\n      add\n      swap1\n      dup2\n      mstore\n      0x20\n      add\n      0x00\n      keccak256\n      sload\n        /* \"Staking.sol\":3763:3779  rewardperToken() */\n      tag_40\n        /* \"Staking.sol\":3763:3777  rewardperToken */\n      tag_28\n        /* \"Staking.sol\":3763:3779  rewardperToken() */\n      jump\t// in\n    tag_40:\n        /* \"Staking.sol\":3763:3810  rewardperToken() - UserRewardPerToken[_account] */\n      tag_41\n      swap2\n      swap1\n      tag_42\n      jump\t// in\n    tag_41:\n        /* \"Staking.sol\":3740:3749  balanceOf */\n      0x08\n        /* \"Staking.sol\":3740:3759  balanceOf[_account] */\n      0x00\n        /* \"Staking.sol\":3750:3758  _account */\n      dup7\n        /* \"Staking.sol\":3740:3759  balanceOf[_account] */\n      0xffffffffffffffffffffffffffffffffffffffff\n      and\n      0xffffffffffffffffffffffffffffffffffffffff\n      and\n      dup2\n      mstore\n      0x20\n      add\n      swap1\n      dup2\n      mstore\n      0x20\n      add\n      0x00\n      keccak256\n      sload\n        /* \"Staking.sol\":3740:3811  balanceOf[_account] * (rewardperToken() - UserRewardPerToken[_account]) */\n      tag_43\n      swap2\n      swap1\n      tag_44\n      jump\t// in\n    tag_43:\n        /* \"Staking.sol\":3739:3819  (balanceOf[_account] * (rewardperToken() - UserRewardPerToken[_account])) / 1e18 */\n      tag_45\n      swap2\n      swap1\n      tag_46\n      jump\t// in\n    tag_45:\n        /* \"Staking.sol\":3739:3839  (balanceOf[_account] * (rewardperToken() - UserRewardPerToken[_account])) / 1e18 + rewards[_account] */\n      tag_47\n      swap2\n      swap1\n      tag_48\n      jump\t// in\n    tag_47:\n        /* \"Staking.sol\":3732:3839  return (balanceOf[_account] * (rewardperToken() - UserRewardPerToken[_account])) / 1e18 + rewards[_account] */\n      swap1\n      pop\n        /* \"Staking.sol\":3659:3846  function earned(address _account) public view returns(uint256) {... */\n      swap2\n      swap1\n      pop\n      jump\t// out\n        /* \"Staking.sol\":2927:3246  function withdraw(uint256 _amount) external updateReward(msg.sender) {... */\n    tag_21:\n        /* \"Staking.sol\":2984:2994  msg.sender */\n      caller\n        /* \"Staking.sol\":837:853  rewardperToken() */\n      tag_50\n        /* \"Staking.sol\":837:851  rewardperToken */\n      tag_28\n        /* \"Staking.sol\":837:853  rewardperToken() */\n      jump\t// in\n    tag_50:\n        /* \"Staking.sol\":812:834  s_RewardperTokenStored */\n      0x04\n        /* \"Staking.sol\":812:853  s_RewardperTokenStored = rewardperToken() */\n      dup2\n      swap1\n      sstore\n      pop\n        /* \"Staking.sol\":877:904  lastTimeRewardsApplicable() */\n      tag_51\n        /* \"Staking.sol\":877:902  lastTimeRewardsApplicable */\n      tag_37\n        /* \"Staking.sol\":877:904  lastTimeRewardsApplicable() */\n      jump\t// in\n    tag_51:\n        /* \"Staking.sol\":863:874  s_updatedAt */\n      0x02\n        /* \"Staking.sol\":863:904  s_updatedAt = lastTimeRewardsApplicable() */\n      dup2\n      swap1\n      sstore\n      pop\n        /* \"Staking.sol\":938:939  0 */\n      0x00\n        /* \"Staking.sol\":918:940  _account == address(0) */\n      0xffffffffffffffffffffffffffffffffffffffff\n      and\n        /* \"Staking.sol\":918:926  _account */\n      dup2\n        /* \"Staking.sol\":918:940  _account == address(0) */\n      0xffffffffffffffffffffffffffffffffffffffff\n      and\n      sub\n        /* \"Staking.sol\":914:975  if (_account == address(0)) {... */\n      tag_52\n      jumpi\n        /* \"Staking.sol\":956:964  revert() */\n      0x00\n      dup1\n      revert\n        /* \"Staking.sol\":914:975  if (_account == address(0)) {... */\n    tag_52:\n        /* \"Staking.sol\":1004:1020  earned(_account) */\n      tag_53\n        /* \"Staking.sol\":1011:1019  _account */\n      dup2\n        /* \"Staking.sol\":1004:1010  earned */\n      tag_15\n        /* \"Staking.sol\":1004:1020  earned(_account) */\n      jump\t// in\n    tag_53:\n        /* \"Staking.sol\":984:991  rewards */\n      0x06\n        /* \"Staking.sol\":984:1001  rewards[_account] */\n      0x00\n        /* \"Staking.sol\":992:1000  _account */\n      dup4\n        /* \"Staking.sol\":984:1001  rewards[_account] */\n      0xffffffffffffffffffffffffffffffffffffffff\n      and\n      0xffffffffffffffffffffffffffffffffffffffff\n      and\n      dup2\n      mstore\n      0x20\n      add\n      swap1\n      dup2\n      mstore\n      0x20\n      add\n      0x00\n      keccak256\n        /* \"Staking.sol\":984:1020  rewards[_account] = earned(_account) */\n      dup2\n      swap1\n      sstore\n      pop\n        /* \"Staking.sol\":1061:1083  s_RewardperTokenStored */\n      sload(0x04)\n        /* \"Staking.sol\":1030:1048  UserRewardPerToken */\n      0x05\n        /* \"Staking.sol\":1030:1058  UserRewardPerToken[_account] */\n      0x00\n        /* \"Staking.sol\":1049:1057  _account */\n      dup4\n        /* \"Staking.sol\":1030:1058  UserRewardPerToken[_account] */\n      0xffffffffffffffffffffffffffffffffffffffff\n      and\n      0xffffffffffffffffffffffffffffffffffffffff\n      and\n      dup2\n      mstore\n      0x20\n      add\n      swap1\n      dup2\n      mstore\n      0x20\n      add\n      0x00\n      keccak256\n        /* \"Staking.sol\":1030:1083  UserRewardPerToken[_account] = s_RewardperTokenStored */\n      dup2\n      swap1\n      sstore\n      pop\n        /* \"Staking.sol\":3022:3023  0 */\n      0x00\n        /* \"Staking.sol\":3011:3018  _amount */\n      dup3\n        /* \"Staking.sol\":3011:3023  _amount <= 0 */\n      gt\n        /* \"Staking.sol\":3007:3058  if (_amount <= 0) {... */\n      tag_55\n      jumpi\n        /* \"Staking.sol\":3039:3047  revert() */\n      0x00\n      dup1\n      revert\n        /* \"Staking.sol\":3007:3058  if (_amount <= 0) {... */\n    tag_55:\n        /* \"Staking.sol\":3117:3124  _amount */\n      dup2\n        /* \"Staking.sol\":3092:3101  balanceOf */\n      0x08\n        /* \"Staking.sol\":3092:3113  balanceOf[msg.sender] */\n      0x00\n        /* \"Staking.sol\":3102:3112  msg.sender */\n      caller\n        /* \"Staking.sol\":3092:3113  balanceOf[msg.sender] */\n      0xffffffffffffffffffffffffffffffffffffffff\n      and\n      0xffffffffffffffffffffffffffffffffffffffff\n      and\n      dup2\n      mstore\n      0x20\n      add\n      swap1\n      dup2\n      mstore\n      0x20\n      add\n      0x00\n      keccak256\n      0x00\n        /* \"Staking.sol\":3092:3124  balanceOf[msg.sender] -= _amount */\n      dup3\n      dup3\n      sload\n      sub\n      swap3\n      pop\n      pop\n      dup2\n      swap1\n      sstore\n      pop\n        /* \"Staking.sol\":3166:3173  _amount */\n      dup2\n        /* \"Staking.sol\":3152:3163  totalSupply */\n      sload(0x07)\n        /* \"Staking.sol\":3152:3173  totalSupply - _amount */\n      sub\n        /* \"Staking.sol\":3138:3149  totalSupply */\n      0x07\n        /* \"Staking.sol\":3138:3173  totalSupply = totalSupply - _amount */\n      dup2\n      swap1\n      sstore\n      pop\n        /* \"Staking.sol\":3194:3208  i_stakingToken */\n      immutable(\"0x043ab7193d962ca510e48770a5a13714f4684febe0e5affcfd1eb73cfed1f218\")\n        /* \"Staking.sol\":3194:3217  i_stakingToken.transfer */\n      0xffffffffffffffffffffffffffffffffffffffff\n      and\n      0xa9059cbb\n        /* \"Staking.sol\":3218:3228  msg.sender */\n      caller\n        /* \"Staking.sol\":3230:3237  _amount */\n      dup5\n        /* \"Staking.sol\":3194:3238  i_stakingToken.transfer(msg.sender, _amount) */\n      mload(0x40)\n      dup4\n      0xffffffff\n      and\n      0xe0\n      shl\n      dup2\n      mstore\n      0x04\n      add\n      tag_56\n      swap3\n      swap2\n      swap1\n      tag_57\n      jump\t// in\n    tag_56:\n      0x20\n      mload(0x40)\n      dup1\n      dup4\n      sub\n      dup2\n      0x00\n      dup8\n      gas\n      call\n      iszero\n      dup1\n      iszero\n      tag_59\n      jumpi\n      returndatasize\n      0x00\n      dup1\n      returndatacopy\n      revert(0x00, returndatasize)\n    tag_59:\n      pop\n      pop\n      pop\n      pop\n      mload(0x40)\n      returndatasize\n      not(0x1f)\n      0x1f\n      dup3\n      add\n      and\n      dup3\n      add\n      dup1\n      0x40\n      mstore\n      pop\n      dup2\n      add\n      swap1\n      tag_60\n      swap2\n      swap1\n      tag_61\n      jump\t// in\n    tag_60:\n      pop\n        /* \"Staking.sol\":2927:3246  function withdraw(uint256 _amount) external updateReward(msg.sender) {... */\n      pop\n      pop\n      jump\t// out\n        /* \"Staking.sol\":3852:4090  function getReward() external updateReward(msg.sender){... */\n    tag_23:\n        /* \"Staking.sol\":3895:3905  msg.sender */\n      caller\n        /* \"Staking.sol\":837:853  rewardperToken() */\n      tag_63\n        /* \"Staking.sol\":837:851  rewardperToken */\n      tag_28\n        /* \"Staking.sol\":837:853  rewardperToken() */\n      jump\t// in\n    tag_63:\n        /* \"Staking.sol\":812:834  s_RewardperTokenStored */\n      0x04\n        /* \"Staking.sol\":812:853  s_RewardperTokenStored = rewardperToken() */\n      dup2\n      swap1\n      sstore\n      pop\n        /* \"Staking.sol\":877:904  lastTimeRewardsApplicable() */\n      tag_64\n        /* \"Staking.sol\":877:902  lastTimeRewardsApplicable */\n      tag_37\n        /* \"Staking.sol\":877:904  lastTimeRewardsApplicable() */\n      jump\t// in\n    tag_64:\n        /* \"Staking.sol\":863:874  s_updatedAt */\n      0x02\n        /* \"Staking.sol\":863:904  s_updatedAt = lastTimeRewardsApplicable() */\n      dup2\n      swap1\n      sstore\n      pop\n        /* \"Staking.sol\":938:939  0 */\n      0x00\n        /* \"Staking.sol\":918:940  _account == address(0) */\n      0xffffffffffffffffffffffffffffffffffffffff\n      and\n        /* \"Staking.sol\":918:926  _account */\n      dup2\n        /* \"Staking.sol\":918:940  _account == address(0) */\n      0xffffffffffffffffffffffffffffffffffffffff\n      and\n      sub\n        /* \"Staking.sol\":914:975  if (_account == address(0)) {... */\n      tag_65\n      jumpi\n        /* \"Staking.sol\":956:964  revert() */\n      0x00\n      dup1\n      revert\n        /* \"Staking.sol\":914:975  if (_account == address(0)) {... */\n    tag_65:\n        /* \"Staking.sol\":1004:1020  earned(_account) */\n      tag_66\n        /* \"Staking.sol\":1011:1019  _account */\n      dup2\n        /* \"Staking.sol\":1004:1010  earned */\n      tag_15\n        /* \"Staking.sol\":1004:1020  earned(_account) */\n      jump\t// in\n    tag_66:\n        /* \"Staking.sol\":984:991  rewards */\n      0x06\n        /* \"Staking.sol\":984:1001  rewards[_account] */\n      0x00\n        /* \"Staking.sol\":992:1000  _account */\n      dup4\n        /* \"Staking.sol\":984:1001  rewards[_account] */\n      0xffffffffffffffffffffffffffffffffffffffff\n      and\n      0xffffffffffffffffffffffffffffffffffffffff\n      and\n      dup2\n      mstore\n      0x20\n      add\n      swap1\n      dup2\n      mstore\n      0x20\n      add\n      0x00\n      keccak256\n        /* \"Staking.sol\":984:1020  rewards[_account] = earned(_account) */\n      dup2\n      swap1\n      sstore\n      pop\n        /* \"Staking.sol\":1061:1083  s_RewardperTokenStored */\n      sload(0x04)\n        /* \"Staking.sol\":1030:1048  UserRewardPerToken */\n      0x05\n        /* \"Staking.sol\":1030:1058  UserRewardPerToken[_account] */\n      0x00\n        /* \"Staking.sol\":1049:1057  _account */\n      dup4\n        /* \"Staking.sol\":1030:1058  UserRewardPerToken[_account] */\n      0xffffffffffffffffffffffffffffffffffffffff\n      and\n      0xffffffffffffffffffffffffffffffffffffffff\n      and\n      dup2\n      mstore\n      0x20\n      add\n      swap1\n      dup2\n      mstore\n      0x20\n      add\n      0x00\n      keccak256\n        /* \"Staking.sol\":1030:1083  UserRewardPerToken[_account] = s_RewardperTokenStored */\n      dup2\n      swap1\n      sstore\n      pop\n        /* \"Staking.sol\":3916:3930  uint256 reward */\n      0x00\n        /* \"Staking.sol\":3933:3940  rewards */\n      0x06\n        /* \"Staking.sol\":3933:3952  rewards[msg.sender] */\n      0x00\n        /* \"Staking.sol\":3941:3951  msg.sender */\n      caller\n        /* \"Staking.sol\":3933:3952  rewards[msg.sender] */\n      0xffffffffffffffffffffffffffffffffffffffff\n      and\n      0xffffffffffffffffffffffffffffffffffffffff\n      and\n      dup2\n      mstore\n      0x20\n      add\n      swap1\n      dup2\n      mstore\n      0x20\n      add\n      0x00\n      keccak256\n      sload\n        /* \"Staking.sol\":3916:3952  uint256 reward = rewards[msg.sender] */\n      swap1\n      pop\n        /* \"Staking.sol\":3976:3977  0 */\n      0x00\n        /* \"Staking.sol\":3966:3972  reward */\n      dup2\n        /* \"Staking.sol\":3966:3977  reward != 0 */\n      eq\n        /* \"Staking.sol\":3962:4083  if (reward != 0){... */\n      tag_68\n      jumpi\n        /* \"Staking.sol\":4014:4015  0 */\n      0x00\n        /* \"Staking.sol\":3992:3999  rewards */\n      0x06\n        /* \"Staking.sol\":3992:4011  rewards[msg.sender] */\n      0x00\n        /* \"Staking.sol\":4000:4010  msg.sender */\n      caller\n        /* \"Staking.sol\":3992:4011  rewards[msg.sender] */\n      0xffffffffffffffffffffffffffffffffffffffff\n      and\n      0xffffffffffffffffffffffffffffffffffffffff\n      and\n      dup2\n      mstore\n      0x20\n      add\n      swap1\n      dup2\n      mstore\n      0x20\n      add\n      0x00\n      keccak256\n        /* \"Staking.sol\":3992:4015  rewards[msg.sender] = 0 */\n      dup2\n      swap1\n      sstore\n      pop\n        /* \"Staking.sol\":4029:4043  i_rewardsToken */\n      immutable(\"0xcc193713febc75d3d9bd2f9ce113f403ff19633f15c8cdbcf79756ae23e77f9a\")\n        /* \"Staking.sol\":4029:4052  i_rewardsToken.transfer */\n      0xffffffffffffffffffffffffffffffffffffffff\n      and\n      0xa9059cbb\n        /* \"Staking.sol\":4053:4063  msg.sender */\n      caller\n        /* \"Staking.sol\":4065:4071  reward */\n      dup4\n        /* \"Staking.sol\":4029:4072  i_rewardsToken.transfer(msg.sender, reward) */\n      mload(0x40)\n      dup4\n      0xffffffff\n      and\n      0xe0\n      shl\n      dup2\n      mstore\n      0x04\n      add\n      tag_69\n      swap3\n      swap2\n      swap1\n      tag_57\n      jump\t// in\n    tag_69:\n      0x20\n      mload(0x40)\n      dup1\n      dup4\n      sub\n      dup2\n      0x00\n      dup8\n      gas\n      call\n      iszero\n      dup1\n      iszero\n      tag_71\n      jumpi\n      returndatasize\n      0x00\n      dup1\n      returndatacopy\n      revert(0x00, returndatasize)\n    tag_71:\n      pop\n      pop\n      pop\n      pop\n      mload(0x40)\n      returndatasize\n      not(0x1f)\n      0x1f\n      dup3\n      add\n      and\n      dup3\n      add\n      dup1\n      0x40\n      mstore\n      pop\n      dup2\n      add\n      swap1\n      tag_72\n      swap2\n      swap1\n      tag_61\n      jump\t// in\n    tag_72:\n      pop\n        /* \"Staking.sol\":3962:4083  if (reward != 0){... */\n    tag_68:\n        /* \"Staking.sol\":3906:4090  {... */\n      pop\n        /* \"Staking.sol\":3852:4090  function getReward() external updateReward(msg.sender){... */\n      pop\n      jump\t// out\n        /* \"Staking.sol\":2588:2921  function stake(uint256 _amount) external updateReward(msg.sender) {... */\n    tag_26:\n        /* \"Staking.sol\":2642:2652  msg.sender */\n      caller\n        /* \"Staking.sol\":837:853  rewardperToken() */\n      tag_74\n        /* \"Staking.sol\":837:851  rewardperToken */\n      tag_28\n        /* \"Staking.sol\":837:853  rewardperToken() */\n      jump\t// in\n    tag_74:\n        /* \"Staking.sol\":812:834  s_RewardperTokenStored */\n      0x04\n        /* \"Staking.sol\":812:853  s_RewardperTokenStored = rewardperToken() */\n      dup2\n      swap1\n      sstore\n      pop\n        /* \"Staking.sol\":877:904  lastTimeRewardsApplicable() */\n      tag_75\n        /* \"Staking.sol\":877:902  lastTimeRewardsApplicable */\n      tag_37\n        /* \"Staking.sol\":877:904  lastTimeRewardsApplicable() */\n      jump\t// in\n    tag_75:\n        /* \"Staking.sol\":863:874  s_updatedAt */\n      0x02\n        /* \"Staking.sol\":863:904  s_updatedAt = lastTimeRewardsApplicable() */\n      dup2\n      swap1\n      sstore\n      pop\n        /* \"Staking.sol\":938:939  0 */\n      0x00\n        /* \"Staking.sol\":918:940  _account == address(0) */\n      0xffffffffffffffffffffffffffffffffffffffff\n      and\n        /* \"Staking.sol\":918:926  _account */\n      dup2\n        /* \"Staking.sol\":918:940  _account == address(0) */\n      0xffffffffffffffffffffffffffffffffffffffff\n      and\n      sub\n        /* \"Staking.sol\":914:975  if (_account == address(0)) {... */\n      tag_76\n      jumpi\n        /* \"Staking.sol\":956:964  revert() */\n      0x00\n      dup1\n      revert\n        /* \"Staking.sol\":914:975  if (_account == address(0)) {... */\n    tag_76:\n        /* \"Staking.sol\":1004:1020  earned(_account) */\n      tag_77\n        /* \"Staking.sol\":1011:1019  _account */\n      dup2\n        /* \"Staking.sol\":1004:1010  earned */\n      tag_15\n        /* \"Staking.sol\":1004:1020  earned(_account) */\n      jump\t// in\n    tag_77:\n        /* \"Staking.sol\":984:991  rewards */\n      0x06\n        /* \"Staking.sol\":984:1001  rewards[_account] */\n      0x00\n        /* \"Staking.sol\":992:1000  _account */\n      dup4\n        /* \"Staking.sol\":984:1001  rewards[_account] */\n      0xffffffffffffffffffffffffffffffffffffffff\n      and\n      0xffffffffffffffffffffffffffffffffffffffff\n      and\n      dup2\n      mstore\n      0x20\n      add\n      swap1\n      dup2\n      mstore\n      0x20\n      add\n      0x00\n      keccak256\n        /* \"Staking.sol\":984:1020  rewards[_account] = earned(_account) */\n      dup2\n      swap1\n      sstore\n      pop\n        /* \"Staking.sol\":1061:1083  s_RewardperTokenStored */\n      sload(0x04)\n        /* \"Staking.sol\":1030:1048  UserRewardPerToken */\n      0x05\n        /* \"Staking.sol\":1030:1058  UserRewardPerToken[_account] */\n      0x00\n        /* \"Staking.sol\":1049:1057  _account */\n      dup4\n        /* \"Staking.sol\":1030:1058  UserRewardPerToken[_account] */\n      0xffffffffffffffffffffffffffffffffffffffff\n      and\n      0xffffffffffffffffffffffffffffffffffffffff\n      and\n      dup2\n      mstore\n      0x20\n      add\n      swap1\n      dup2\n      mstore\n      0x20\n      add\n      0x00\n      keccak256\n        /* \"Staking.sol\":1030:1083  UserRewardPerToken[_account] = s_RewardperTokenStored */\n      dup2\n      swap1\n      sstore\n      pop\n        /* \"Staking.sol\":2679:2680  0 */\n      0x00\n        /* \"Staking.sol\":2668:2675  _amount */\n      dup3\n        /* \"Staking.sol\":2668:2680  _amount <= 0 */\n      gt\n        /* \"Staking.sol\":2664:2715  if (_amount <= 0) {... */\n      tag_79\n      jumpi\n        /* \"Staking.sol\":2696:2704  revert() */\n      0x00\n      dup1\n      revert\n        /* \"Staking.sol\":2664:2715  if (_amount <= 0) {... */\n    tag_79:\n        /* \"Staking.sol\":2725:2739  i_stakingToken */\n      immutable(\"0x043ab7193d962ca510e48770a5a13714f4684febe0e5affcfd1eb73cfed1f218\")\n        /* \"Staking.sol\":2725:2752  i_stakingToken.transferFrom */\n      0xffffffffffffffffffffffffffffffffffffffff\n      and\n      0x23b872dd\n        /* \"Staking.sol\":2753:2763  msg.sender */\n      caller\n        /* \"Staking.sol\":2773:2777  this */\n      address\n        /* \"Staking.sol\":2780:2787  _amount */\n      dup6\n        /* \"Staking.sol\":2725:2788  i_stakingToken.transferFrom(msg.sender, address(this), _amount) */\n      mload(0x40)\n      dup5\n      0xffffffff\n      and\n      0xe0\n      shl\n      dup2\n      mstore\n      0x04\n      add\n      tag_80\n      swap4\n      swap3\n      swap2\n      swap1\n      tag_81\n      jump\t// in\n    tag_80:\n      0x20\n      mload(0x40)\n      dup1\n      dup4\n      sub\n      dup2\n      0x00\n      dup8\n      gas\n      call\n      iszero\n      dup1\n      iszero\n      tag_83\n      jumpi\n      returndatasize\n      0x00\n      dup1\n      returndatacopy\n      revert(0x00, returndatasize)\n    tag_83:\n      pop\n      pop\n      pop\n      pop\n      mload(0x40)\n      returndatasize\n      not(0x1f)\n      0x1f\n      dup3\n      add\n      and\n      dup3\n      add\n      dup1\n      0x40\n      mstore\n      pop\n      dup2\n      add\n      swap1\n      tag_84\n      swap2\n      swap1\n      tag_61\n      jump\t// in\n    tag_84:\n      pop\n        /* \"Staking.sol\":2848:2855  _amount */\n      dup2\n        /* \"Staking.sol\":2823:2832  balanceOf */\n      0x08\n        /* \"Staking.sol\":2823:2844  balanceOf[msg.sender] */\n      0x00\n        /* \"Staking.sol\":2833:2843  msg.sender */\n      caller\n        /* \"Staking.sol\":2823:2844  balanceOf[msg.sender] */\n      0xffffffffffffffffffffffffffffffffffffffff\n      and\n      0xffffffffffffffffffffffffffffffffffffffff\n      and\n      dup2\n      mstore\n      0x20\n      add\n      swap1\n      dup2\n      mstore\n      0x20\n      add\n      0x00\n      keccak256\n      0x00\n        /* \"Staking.sol\":2823:2855  balanceOf[msg.sender] += _amount */\n      dup3\n      dup3\n      sload\n      add\n      swap3\n      pop\n      pop\n      dup2\n      swap1\n      sstore\n      pop\n        /* \"Staking.sol\":2897:2904  _amount */\n      dup2\n        /* \"Staking.sol\":2883:2894  totalSupply */\n      sload(0x07)\n        /* \"Staking.sol\":2883:2904  totalSupply + _amount */\n      add\n        /* \"Staking.sol\":2869:2880  totalSupply */\n      0x07\n        /* \"Staking.sol\":2869:2904  totalSupply = totalSupply + _amount */\n      dup2\n      swap1\n      sstore\n      pop\n        /* \"Staking.sol\":2588:2921  function stake(uint256 _amount) external updateReward(msg.sender) {... */\n      pop\n      pop\n      jump\t// out\n        /* \"Staking.sol\":3381:3653  function rewardperToken() public view returns (uint256) {... */\n    tag_28:\n        /* \"Staking.sol\":3428:3435  uint256 */\n      0x00\n        /* \"Staking.sol\":3466:3467  0 */\n      dup1\n        /* \"Staking.sol\":3451:3462  totalSupply */\n      sload(0x07)\n        /* \"Staking.sol\":3451:3467  totalSupply == 0 */\n      sub\n        /* \"Staking.sol\":3447:3523  if (totalSupply == 0) {... */\n      tag_86\n      jumpi\n        /* \"Staking.sol\":3490:3512  s_RewardperTokenStored */\n      sload(0x04)\n        /* \"Staking.sol\":3483:3512  return s_RewardperTokenStored */\n      swap1\n      pop\n      jump(tag_85)\n        /* \"Staking.sol\":3447:3523  if (totalSupply == 0) {... */\n    tag_86:\n        /* \"Staking.sol\":3635:3646  totalSupply */\n      sload(0x07)\n        /* \"Staking.sol\":3627:3631  1e18 */\n      0x0de0b6b3a7640000\n        /* \"Staking.sol\":3612:3623  s_updatedAt */\n      sload(0x02)\n        /* \"Staking.sol\":3582:3609  lastTimeRewardsApplicable() */\n      tag_87\n        /* \"Staking.sol\":3582:3607  lastTimeRewardsApplicable */\n      tag_37\n        /* \"Staking.sol\":3582:3609  lastTimeRewardsApplicable() */\n      jump\t// in\n    tag_87:\n        /* \"Staking.sol\":3582:3623  lastTimeRewardsApplicable() - s_updatedAt */\n      tag_88\n      swap2\n      swap1\n      tag_42\n      jump\t// in\n    tag_88:\n        /* \"Staking.sol\":3566:3578  s_rewardRate */\n      sload(0x03)\n        /* \"Staking.sol\":3566:3624  s_rewardRate * (lastTimeRewardsApplicable() - s_updatedAt) */\n      tag_89\n      swap2\n      swap1\n      tag_44\n      jump\t// in\n    tag_89:\n        /* \"Staking.sol\":3566:3631  s_rewardRate * (lastTimeRewardsApplicable() - s_updatedAt) * 1e18 */\n      tag_90\n      swap2\n      swap1\n      tag_44\n      jump\t// in\n    tag_90:\n        /* \"Staking.sol\":3540:3562  s_RewardperTokenStored */\n      sload(0x04)\n        /* \"Staking.sol\":3540:3633  s_RewardperTokenStored * (s_rewardRate * (lastTimeRewardsApplicable() - s_updatedAt) * 1e18 ) */\n      tag_91\n      swap2\n      swap1\n      tag_44\n      jump\t// in\n    tag_91:\n        /* \"Staking.sol\":3539:3646  (s_RewardperTokenStored * (s_rewardRate * (lastTimeRewardsApplicable() - s_updatedAt) * 1e18 ))/totalSupply */\n      tag_92\n      swap2\n      swap1\n      tag_46\n      jump\t// in\n    tag_92:\n        /* \"Staking.sol\":3532:3646  return (s_RewardperTokenStored * (s_rewardRate * (lastTimeRewardsApplicable() - s_updatedAt) * 1e18 ))/totalSupply */\n      swap1\n      pop\n        /* \"Staking.sol\":3381:3653  function rewardperToken() public view returns (uint256) {... */\n    tag_85:\n      swap1\n      jump\t// out\n        /* \"Staking.sol\":1691:2582  function notifyRewrdsAmount(uint256 _amount) external onlyOwner updateReward(address(0)){... */\n    tag_32:\n        /* \"Staking.sol\":697:704  i_owner */\n      immutable(\"0xa3bcf8af6929b66d6da7ee355c48fd1cf926fd090bc75a4dcbf7bd8e365645e3\")\n        /* \"Staking.sol\":683:704  msg.sender != i_owner */\n      0xffffffffffffffffffffffffffffffffffffffff\n      and\n        /* \"Staking.sol\":683:693  msg.sender */\n      caller\n        /* \"Staking.sol\":683:704  msg.sender != i_owner */\n      0xffffffffffffffffffffffffffffffffffffffff\n      and\n      eq\n        /* \"Staking.sol\":679:739  if (msg.sender != i_owner) {... */\n      tag_94\n      jumpi\n        /* \"Staking.sol\":720:728  revert() */\n      0x00\n      dup1\n      revert\n        /* \"Staking.sol\":679:739  if (msg.sender != i_owner) {... */\n    tag_94:\n        /* \"Staking.sol\":1776:1777  0 */\n      0x00\n        /* \"Staking.sol\":837:853  rewardperToken() */\n      tag_96\n        /* \"Staking.sol\":837:851  rewardperToken */\n      tag_28\n        /* \"Staking.sol\":837:853  rewardperToken() */\n      jump\t// in\n    tag_96:\n        /* \"Staking.sol\":812:834  s_RewardperTokenStored */\n      0x04\n        /* \"Staking.sol\":812:853  s_RewardperTokenStored = rewardperToken() */\n      dup2\n      swap1\n      sstore\n      pop\n        /* \"Staking.sol\":877:904  lastTimeRewardsApplicable() */\n      tag_97\n        /* \"Staking.sol\":877:902  lastTimeRewardsApplicable */\n      tag_37\n        /* \"Staking.sol\":877:904  lastTimeRewardsApplicable() */\n      jump\t// in\n    tag_97:\n        /* \"Staking.sol\":863:874  s_updatedAt */\n      0x02\n        /* \"Staking.sol\":863:904  s_updatedAt = lastTimeRewardsApplicable() */\n      dup2\n      swap1\n      sstore\n      pop\n        /* \"Staking.sol\":938:939  0 */\n      0x00\n        /* \"Staking.sol\":918:940  _account == address(0) */\n      0xffffffffffffffffffffffffffffffffffffffff\n      and\n        /* \"Staking.sol\":918:926  _account */\n      dup2\n        /* \"Staking.sol\":918:940  _account == address(0) */\n      0xffffffffffffffffffffffffffffffffffffffff\n      and\n      sub\n        /* \"Staking.sol\":914:975  if (_account == address(0)) {... */\n      tag_98\n      jumpi\n        /* \"Staking.sol\":956:964  revert() */\n      0x00\n      dup1\n      revert\n        /* \"Staking.sol\":914:975  if (_account == address(0)) {... */\n    tag_98:\n        /* \"Staking.sol\":1004:1020  earned(_account) */\n      tag_99\n        /* \"Staking.sol\":1011:1019  _account */\n      dup2\n        /* \"Staking.sol\":1004:1010  earned */\n      tag_15\n        /* \"Staking.sol\":1004:1020  earned(_account) */\n      jump\t// in\n    tag_99:\n        /* \"Staking.sol\":984:991  rewards */\n      0x06\n        /* \"Staking.sol\":984:1001  rewards[_account] */\n      0x00\n        /* \"Staking.sol\":992:1000  _account */\n      dup4\n        /* \"Staking.sol\":984:1001  rewards[_account] */\n      0xffffffffffffffffffffffffffffffffffffffff\n      and\n      0xffffffffffffffffffffffffffffffffffffffff\n      and\n      dup2\n      mstore\n      0x20\n      add\n      swap1\n      dup2\n      mstore\n      0x20\n      add\n      0x00\n      keccak256\n        /* \"Staking.sol\":984:1020  rewards[_account] = earned(_account) */\n      dup2\n      swap1\n      sstore\n      pop\n        /* \"Staking.sol\":1061:1083  s_RewardperTokenStored */\n      sload(0x04)\n        /* \"Staking.sol\":1030:1048  UserRewardPerToken */\n      0x05\n        /* \"Staking.sol\":1030:1058  UserRewardPerToken[_account] */\n      0x00\n        /* \"Staking.sol\":1049:1057  _account */\n      dup4\n        /* \"Staking.sol\":1030:1058  UserRewardPerToken[_account] */\n      0xffffffffffffffffffffffffffffffffffffffff\n      and\n      0xffffffffffffffffffffffffffffffffffffffff\n      and\n      dup2\n      mstore\n      0x20\n      add\n      swap1\n      dup2\n      mstore\n      0x20\n      add\n      0x00\n      keccak256\n        /* \"Staking.sol\":1030:1083  UserRewardPerToken[_account] = s_RewardperTokenStored */\n      dup2\n      swap1\n      sstore\n      pop\n        /* \"Staking.sol\":2008:2023  block.timestamp */\n      timestamp\n        /* \"Staking.sol\":1994:2005  s_finshedAt */\n      sload(0x01)\n        /* \"Staking.sol\":1994:2023  s_finshedAt > block.timestamp */\n      gt\n        /* \"Staking.sol\":1990:2265  if (s_finshedAt > block.timestamp) {... */\n      iszero\n      tag_101\n      jumpi\n        /* \"Staking.sol\":2062:2072  s_duration */\n      sload(0x00)\n        /* \"Staking.sol\":2054:2061  _amount */\n      dup3\n        /* \"Staking.sol\":2054:2072  _amount/s_duration */\n      tag_102\n      swap2\n      swap1\n      tag_46\n      jump\t// in\n    tag_102:\n        /* \"Staking.sol\":2039:2051  s_rewardRate */\n      0x03\n        /* \"Staking.sol\":2039:2072  s_rewardRate = _amount/s_duration */\n      dup2\n      swap1\n      sstore\n      pop\n        /* \"Staking.sol\":1990:2265  if (s_finshedAt > block.timestamp) {... */\n      jump(tag_103)\n    tag_101:\n        /* \"Staking.sol\":2111:2135  uint256 remainingRewards */\n      0x00\n        /* \"Staking.sol\":2168:2183  block.timestamp */\n      timestamp\n        /* \"Staking.sol\":2154:2165  s_finshedAt */\n      sload(0x01)\n        /* \"Staking.sol\":2154:2183  s_finshedAt - block.timestamp */\n      tag_104\n      swap2\n      swap1\n      tag_42\n      jump\t// in\n    tag_104:\n        /* \"Staking.sol\":2138:2150  s_rewardRate */\n      sload(0x03)\n        /* \"Staking.sol\":2138:2184  s_rewardRate * (s_finshedAt - block.timestamp) */\n      tag_105\n      swap2\n      swap1\n      tag_44\n      jump\t// in\n    tag_105:\n        /* \"Staking.sol\":2111:2184  uint256 remainingRewards = s_rewardRate * (s_finshedAt - block.timestamp) */\n      swap1\n      pop\n        /* \"Staking.sol\":2244:2254  s_duration */\n      sload(0x00)\n        /* \"Staking.sol\":2233:2240  _amount */\n      dup4\n        /* \"Staking.sol\":2214:2230  remainingRewards */\n      dup3\n        /* \"Staking.sol\":2214:2240  remainingRewards + _amount */\n      tag_106\n      swap2\n      swap1\n      tag_48\n      jump\t// in\n    tag_106:\n        /* \"Staking.sol\":2213:2254  (remainingRewards + _amount) / s_duration */\n      tag_107\n      swap2\n      swap1\n      tag_46\n      jump\t// in\n    tag_107:\n        /* \"Staking.sol\":2198:2210  s_rewardRate */\n      0x03\n        /* \"Staking.sol\":2198:2254  s_rewardRate = (remainingRewards + _amount) / s_duration */\n      dup2\n      swap1\n      sstore\n      pop\n        /* \"Staking.sol\":2097:2265  {... */\n      pop\n        /* \"Staking.sol\":1990:2265  if (s_finshedAt > block.timestamp) {... */\n    tag_103:\n        /* \"Staking.sol\":2295:2296  0 */\n      0x00\n        /* \"Staking.sol\":2279:2291  s_rewardRate */\n      sload(0x03)\n        /* \"Staking.sol\":2279:2296  s_rewardRate == 0 */\n      sub\n        /* \"Staking.sol\":2275:2331  if (s_rewardRate == 0) {... */\n      tag_108\n      jumpi\n        /* \"Staking.sol\":2312:2320  revert() */\n      0x00\n      dup1\n      revert\n        /* \"Staking.sol\":2275:2331  if (s_rewardRate == 0) {... */\n    tag_108:\n        /* \"Staking.sol\":2372:2386  i_rewardsToken */\n      immutable(\"0xcc193713febc75d3d9bd2f9ce113f403ff19633f15c8cdbcf79756ae23e77f9a\")\n        /* \"Staking.sol\":2372:2396  i_rewardsToken.balanceOf */\n      0xffffffffffffffffffffffffffffffffffffffff\n      and\n      0x70a08231\n        /* \"Staking.sol\":2405:2409  this */\n      address\n        /* \"Staking.sol\":2372:2411  i_rewardsToken.balanceOf(address(this)) */\n      mload(0x40)\n      dup3\n      0xffffffff\n      and\n      0xe0\n      shl\n      dup2\n      mstore\n      0x04\n      add\n      tag_109\n      swap2\n      swap1\n      tag_110\n      jump\t// in\n    tag_109:\n      0x20\n      mload(0x40)\n      dup1\n      dup4\n      sub\n      dup2\n      dup7\n      gas\n      staticcall\n      iszero\n      dup1\n      iszero\n      tag_112\n      jumpi\n      returndatasize\n      0x00\n      dup1\n      returndatacopy\n      revert(0x00, returndatasize)\n    tag_112:\n      pop\n      pop\n      pop\n      pop\n      mload(0x40)\n      returndatasize\n      not(0x1f)\n      0x1f\n      dup3\n      add\n      and\n      dup3\n      add\n      dup1\n      0x40\n      mstore\n      pop\n      dup2\n      add\n      swap1\n      tag_113\n      swap2\n      swap1\n      tag_114\n      jump\t// in\n    tag_113:\n        /* \"Staking.sol\":2359:2369  s_duration */\n      sload(0x00)\n        /* \"Staking.sol\":2344:2356  s_rewardRate */\n      sload(0x03)\n        /* \"Staking.sol\":2344:2369  s_rewardRate * s_duration */\n      tag_115\n      swap2\n      swap1\n      tag_44\n      jump\t// in\n    tag_115:\n        /* \"Staking.sol\":2344:2411  s_rewardRate * s_duration > i_rewardsToken.balanceOf(address(this)) */\n      gt\n        /* \"Staking.sol\":2340:2446  if (s_rewardRate * s_duration > i_rewardsToken.balanceOf(address(this))) {... */\n      iszero\n      tag_116\n      jumpi\n        /* \"Staking.sol\":2427:2435  revert() */\n      0x00\n      dup1\n      revert\n        /* \"Staking.sol\":2340:2446  if (s_rewardRate * s_duration > i_rewardsToken.balanceOf(address(this))) {... */\n    tag_116:\n        /* \"Staking.sol\":2512:2522  s_duration */\n      sload(0x00)\n        /* \"Staking.sol\":2494:2509  block.timestamp */\n      timestamp\n        /* \"Staking.sol\":2494:2522  block.timestamp + s_duration */\n      add\n        /* \"Staking.sol\":2480:2491  s_finshedAt */\n      0x01\n        /* \"Staking.sol\":2480:2522  s_finshedAt = block.timestamp + s_duration */\n      dup2\n      swap1\n      sstore\n      pop\n        /* \"Staking.sol\":2550:2565  block.timestamp */\n      timestamp\n        /* \"Staking.sol\":2536:2547  s_updatedAt */\n      0x02\n        /* \"Staking.sol\":2536:2565  s_updatedAt = block.timestamp */\n      dup2\n      swap1\n      sstore\n      pop\n        /* \"Staking.sol\":748:749  _ */\n      pop\n        /* \"Staking.sol\":1691:2582  function notifyRewrdsAmount(uint256 _amount) external onlyOwner updateReward(address(0)){... */\n      pop\n      jump\t// out\n        /* \"Staking.sol\":1304:1574  function setRewardsDuration(uint256 _duration) external onlyOwner {... */\n    tag_35:\n        /* \"Staking.sol\":697:704  i_owner */\n      immutable(\"0xa3bcf8af6929b66d6da7ee355c48fd1cf926fd090bc75a4dcbf7bd8e365645e3\")\n        /* \"Staking.sol\":683:704  msg.sender != i_owner */\n      0xffffffffffffffffffffffffffffffffffffffff\n      and\n        /* \"Staking.sol\":683:693  msg.sender */\n      caller\n        /* \"Staking.sol\":683:704  msg.sender != i_owner */\n      0xffffffffffffffffffffffffffffffffffffffff\n      and\n      eq\n        /* \"Staking.sol\":679:739  if (msg.sender != i_owner) {... */\n      tag_118\n      jumpi\n        /* \"Staking.sol\":720:728  revert() */\n      0x00\n      dup1\n      revert\n        /* \"Staking.sol\":679:739  if (msg.sender != i_owner) {... */\n    tag_118:\n        /* \"Staking.sol\":1486:1501  block.timestamp */\n      timestamp\n        /* \"Staking.sol\":1472:1483  s_finshedAt */\n      sload(0x01)\n        /* \"Staking.sol\":1472:1501  s_finshedAt > block.timestamp */\n      gt\n        /* \"Staking.sol\":1468:1536  if (s_finshedAt > block.timestamp) {... */\n      iszero\n      tag_120\n      jumpi\n        /* \"Staking.sol\":1517:1525  revert() */\n      0x00\n      dup1\n      revert\n        /* \"Staking.sol\":1468:1536  if (s_finshedAt > block.timestamp) {... */\n    tag_120:\n        /* \"Staking.sol\":1558:1567  _duration */\n      dup1\n        /* \"Staking.sol\":1545:1555  s_duration */\n      0x00\n        /* \"Staking.sol\":1545:1567  s_duration = _duration */\n      dup2\n      swap1\n      sstore\n      pop\n        /* \"Staking.sol\":1304:1574  function setRewardsDuration(uint256 _duration) external onlyOwner {... */\n      pop\n      jump\t// out\n        /* \"Staking.sol\":3252:3375  function lastTimeRewardsApplicable() public view returns (uint256) {... */\n    tag_37:\n        /* \"Staking.sol\":3310:3317  uint256 */\n      0x00\n        /* \"Staking.sol\":3336:3368  min(block.timestamp,s_finshedAt) */\n      tag_122\n        /* \"Staking.sol\":3340:3355  block.timestamp */\n      timestamp\n        /* \"Staking.sol\":3356:3367  s_finshedAt */\n      sload(0x01)\n        /* \"Staking.sol\":3336:3339  min */\n      tag_123\n        /* \"Staking.sol\":3336:3368  min(block.timestamp,s_finshedAt) */\n      jump\t// in\n    tag_122:\n        /* \"Staking.sol\":3329:3368  return min(block.timestamp,s_finshedAt) */\n      swap1\n      pop\n        /* \"Staking.sol\":3252:3375  function lastTimeRewardsApplicable() public view returns (uint256) {... */\n      swap1\n      jump\t// out\n        /* \"Staking.sol\":4096:4242  function min(uint256 x, uint256 y) internal pure returns (uint256) {... */\n    tag_123:\n        /* \"Staking.sol\":4154:4161  uint256 */\n      0x00\n        /* \"Staking.sol\":4182:4183  y */\n      dup2\n        /* \"Staking.sol\":4177:4178  x */\n      dup4\n        /* \"Staking.sol\":4177:4183  x <= y */\n      gt\n        /* \"Staking.sol\":4173:4218  if (x <= y) {... */\n      tag_125\n      jumpi\n        /* \"Staking.sol\":4206:4207  x */\n      dup3\n        /* \"Staking.sol\":4199:4207  return x */\n      swap1\n      pop\n      jump(tag_124)\n        /* \"Staking.sol\":4173:4218  if (x <= y) {... */\n    tag_125:\n        /* \"Staking.sol\":4234:4235  y */\n      dup2\n        /* \"Staking.sol\":4227:4235  return y */\n      swap1\n      pop\n        /* \"Staking.sol\":4096:4242  function min(uint256 x, uint256 y) internal pure returns (uint256) {... */\n    tag_124:\n      swap3\n      swap2\n      pop\n      pop\n      jump\t// out\n        /* \"#utility.yul\":88:205   */\n    tag_127:\n        /* \"#utility.yul\":197:198   */\n      0x00\n        /* \"#utility.yul\":194:195   */\n      dup1\n        /* \"#utility.yul\":187:199   */\n      revert\n        /* \"#utility.yul\":334:460   */\n    tag_129:\n        /* \"#utility.yul\":371:378   */\n      0x00\n        /* \"#utility.yul\":411:453   */\n      0xffffffffffffffffffffffffffffffffffffffff\n        /* \"#utility.yul\":404:409   */\n      dup3\n        /* \"#utility.yul\":400:454   */\n      and\n        /* \"#utility.yul\":389:454   */\n      swap1\n      pop\n        /* \"#utility.yul\":334:460   */\n      swap2\n      swap1\n      pop\n      jump\t// out\n        /* \"#utility.yul\":466:562   */\n    tag_130:\n        /* \"#utility.yul\":503:510   */\n      0x00\n        /* \"#utility.yul\":532:556   */\n      tag_150\n        /* \"#utility.yul\":550:555   */\n      dup3\n        /* \"#utility.yul\":532:556   */\n      tag_129\n      jump\t// in\n    tag_150:\n        /* \"#utility.yul\":521:556   */\n      swap1\n      pop\n        /* \"#utility.yul\":466:562   */\n      swap2\n      swap1\n      pop\n      jump\t// out\n        /* \"#utility.yul\":568:690   */\n    tag_131:\n        /* \"#utility.yul\":641:665   */\n      tag_152\n        /* \"#utility.yul\":659:664   */\n      dup2\n        /* \"#utility.yul\":641:665   */\n      tag_130\n      jump\t// in\n    tag_152:\n        /* \"#utility.yul\":634:639   */\n      dup2\n        /* \"#utility.yul\":631:666   */\n      eq\n        /* \"#utility.yul\":621:684   */\n      tag_153\n      jumpi\n        /* \"#utility.yul\":680:681   */\n      0x00\n        /* \"#utility.yul\":677:678   */\n      dup1\n        /* \"#utility.yul\":670:682   */\n      revert\n        /* \"#utility.yul\":621:684   */\n    tag_153:\n        /* \"#utility.yul\":568:690   */\n      pop\n      jump\t// out\n        /* \"#utility.yul\":696:835   */\n    tag_132:\n        /* \"#utility.yul\":742:747   */\n      0x00\n        /* \"#utility.yul\":780:786   */\n      dup2\n        /* \"#utility.yul\":767:787   */\n      calldataload\n        /* \"#utility.yul\":758:787   */\n      swap1\n      pop\n        /* \"#utility.yul\":796:829   */\n      tag_155\n        /* \"#utility.yul\":823:828   */\n      dup2\n        /* \"#utility.yul\":796:829   */\n      tag_131\n      jump\t// in\n    tag_155:\n        /* \"#utility.yul\":696:835   */\n      swap3\n      swap2\n      pop\n      pop\n      jump\t// out\n        /* \"#utility.yul\":841:1170   */\n    tag_14:\n        /* \"#utility.yul\":900:906   */\n      0x00\n        /* \"#utility.yul\":949:951   */\n      0x20\n        /* \"#utility.yul\":937:946   */\n      dup3\n        /* \"#utility.yul\":928:935   */\n      dup5\n        /* \"#utility.yul\":924:947   */\n      sub\n        /* \"#utility.yul\":920:952   */\n      slt\n        /* \"#utility.yul\":917:1036   */\n      iszero\n      tag_157\n      jumpi\n        /* \"#utility.yul\":955:1034   */\n      tag_158\n      tag_127\n      jump\t// in\n    tag_158:\n        /* \"#utility.yul\":917:1036   */\n    tag_157:\n        /* \"#utility.yul\":1075:1076   */\n      0x00\n        /* \"#utility.yul\":1100:1153   */\n      tag_159\n        /* \"#utility.yul\":1145:1152   */\n      dup5\n        /* \"#utility.yul\":1136:1142   */\n      dup3\n        /* \"#utility.yul\":1125:1134   */\n      dup6\n        /* \"#utility.yul\":1121:1143   */\n      add\n        /* \"#utility.yul\":1100:1153   */\n      tag_132\n      jump\t// in\n    tag_159:\n        /* \"#utility.yul\":1090:1153   */\n      swap2\n      pop\n        /* \"#utility.yul\":1046:1163   */\n      pop\n        /* \"#utility.yul\":841:1170   */\n      swap3\n      swap2\n      pop\n      pop\n      jump\t// out\n        /* \"#utility.yul\":1176:1253   */\n    tag_133:\n        /* \"#utility.yul\":1213:1220   */\n      0x00\n        /* \"#utility.yul\":1242:1247   */\n      dup2\n        /* \"#utility.yul\":1231:1247   */\n      swap1\n      pop\n        /* \"#utility.yul\":1176:1253   */\n      swap2\n      swap1\n      pop\n      jump\t// out\n        /* \"#utility.yul\":1259:1377   */\n    tag_134:\n        /* \"#utility.yul\":1346:1370   */\n      tag_162\n        /* \"#utility.yul\":1364:1369   */\n      dup2\n        /* \"#utility.yul\":1346:1370   */\n      tag_133\n      jump\t// in\n    tag_162:\n        /* \"#utility.yul\":1341:1344   */\n      dup3\n        /* \"#utility.yul\":1334:1371   */\n      mstore\n        /* \"#utility.yul\":1259:1377   */\n      pop\n      pop\n      jump\t// out\n        /* \"#utility.yul\":1383:1605   */\n    tag_17:\n        /* \"#utility.yul\":1476:1480   */\n      0x00\n        /* \"#utility.yul\":1514:1516   */\n      0x20\n        /* \"#utility.yul\":1503:1512   */\n      dup3\n        /* \"#utility.yul\":1499:1517   */\n      add\n        /* \"#utility.yul\":1491:1517   */\n      swap1\n      pop\n        /* \"#utility.yul\":1527:1598   */\n      tag_164\n        /* \"#utility.yul\":1595:1596   */\n      0x00\n        /* \"#utility.yul\":1584:1593   */\n      dup4\n        /* \"#utility.yul\":1580:1597   */\n      add\n        /* \"#utility.yul\":1571:1577   */\n      dup5\n        /* \"#utility.yul\":1527:1598   */\n      tag_134\n      jump\t// in\n    tag_164:\n        /* \"#utility.yul\":1383:1605   */\n      swap3\n      swap2\n      pop\n      pop\n      jump\t// out\n        /* \"#utility.yul\":1611:1733   */\n    tag_135:\n        /* \"#utility.yul\":1684:1708   */\n      tag_166\n        /* \"#utility.yul\":1702:1707   */\n      dup2\n        /* \"#utility.yul\":1684:1708   */\n      tag_133\n      jump\t// in\n    tag_166:\n        /* \"#utility.yul\":1677:1682   */\n      dup2\n        /* \"#utility.yul\":1674:1709   */\n      eq\n        /* \"#utility.yul\":1664:1727   */\n      tag_167\n      jumpi\n        /* \"#utility.yul\":1723:1724   */\n      0x00\n        /* \"#utility.yul\":1720:1721   */\n      dup1\n        /* \"#utility.yul\":1713:1725   */\n      revert\n        /* \"#utility.yul\":1664:1727   */\n    tag_167:\n        /* \"#utility.yul\":1611:1733   */\n      pop\n      jump\t// out\n        /* \"#utility.yul\":1739:1878   */\n    tag_136:\n        /* \"#utility.yul\":1785:1790   */\n      0x00\n        /* \"#utility.yul\":1823:1829   */\n      dup2\n        /* \"#utility.yul\":1810:1830   */\n      calldataload\n        /* \"#utility.yul\":1801:1830   */\n      swap1\n      pop\n        /* \"#utility.yul\":1839:1872   */\n      tag_169\n        /* \"#utility.yul\":1866:1871   */\n      dup2\n        /* \"#utility.yul\":1839:1872   */\n      tag_135\n      jump\t// in\n    tag_169:\n        /* \"#utility.yul\":1739:1878   */\n      swap3\n      swap2\n      pop\n      pop\n      jump\t// out\n        /* \"#utility.yul\":1884:2213   */\n    tag_20:\n        /* \"#utility.yul\":1943:1949   */\n      0x00\n        /* \"#utility.yul\":1992:1994   */\n      0x20\n        /* \"#utility.yul\":1980:1989   */\n      dup3\n        /* \"#utility.yul\":1971:1978   */\n      dup5\n        /* \"#utility.yul\":1967:1990   */\n      sub\n        /* \"#utility.yul\":1963:1995   */\n      slt\n        /* \"#utility.yul\":1960:2079   */\n      iszero\n      tag_171\n      jumpi\n        /* \"#utility.yul\":1998:2077   */\n      tag_172\n      tag_127\n      jump\t// in\n    tag_172:\n        /* \"#utility.yul\":1960:2079   */\n    tag_171:\n        /* \"#utility.yul\":2118:2119   */\n      0x00\n        /* \"#utility.yul\":2143:2196   */\n      tag_173\n        /* \"#utility.yul\":2188:2195   */\n      dup5\n        /* \"#utility.yul\":2179:2185   */\n      dup3\n        /* \"#utility.yul\":2168:2177   */\n      dup6\n        /* \"#utility.yul\":2164:2186   */\n      add\n        /* \"#utility.yul\":2143:2196   */\n      tag_136\n      jump\t// in\n    tag_173:\n        /* \"#utility.yul\":2133:2196   */\n      swap2\n      pop\n        /* \"#utility.yul\":2089:2206   */\n      pop\n        /* \"#utility.yul\":1884:2213   */\n      swap3\n      swap2\n      pop\n      pop\n      jump\t// out\n        /* \"#utility.yul\":2219:2399   */\n    tag_137:\n        /* \"#utility.yul\":2267:2344   */\n      0x4e487b7100000000000000000000000000000000000000000000000000000000\n        /* \"#utility.yul\":2264:2265   */\n      0x00\n        /* \"#utility.yul\":2257:2345   */\n      mstore\n        /* \"#utility.yul\":2364:2368   */\n      0x11\n        /* \"#utility.yul\":2361:2362   */\n      0x04\n        /* \"#utility.yul\":2354:2369   */\n      mstore\n        /* \"#utility.yul\":2388:2392   */\n      0x24\n        /* \"#utility.yul\":2385:2386   */\n      0x00\n        /* \"#utility.yul\":2378:2393   */\n      revert\n        /* \"#utility.yul\":2405:2599   */\n    tag_42:\n        /* \"#utility.yul\":2445:2449   */\n      0x00\n        /* \"#utility.yul\":2465:2485   */\n      tag_176\n        /* \"#utility.yul\":2483:2484   */\n      dup3\n        /* \"#utility.yul\":2465:2485   */\n      tag_133\n      jump\t// in\n    tag_176:\n        /* \"#utility.yul\":2460:2485   */\n      swap2\n      pop\n        /* \"#utility.yul\":2499:2519   */\n      tag_177\n        /* \"#utility.yul\":2517:2518   */\n      dup4\n        /* \"#utility.yul\":2499:2519   */\n      tag_133\n      jump\t// in\n    tag_177:\n        /* \"#utility.yul\":2494:2519   */\n      swap3\n      pop\n        /* \"#utility.yul\":2543:2544   */\n      dup3\n        /* \"#utility.yul\":2540:2541   */\n      dup3\n        /* \"#utility.yul\":2536:2545   */\n      sub\n        /* \"#utility.yul\":2528:2545   */\n      swap1\n      pop\n        /* \"#utility.yul\":2567:2568   */\n      dup2\n        /* \"#utility.yul\":2561:2565   */\n      dup2\n        /* \"#utility.yul\":2558:2569   */\n      gt\n        /* \"#utility.yul\":2555:2592   */\n      iszero\n      tag_178\n      jumpi\n        /* \"#utility.yul\":2572:2590   */\n      tag_179\n      tag_137\n      jump\t// in\n    tag_179:\n        /* \"#utility.yul\":2555:2592   */\n    tag_178:\n        /* \"#utility.yul\":2405:2599   */\n      swap3\n      swap2\n      pop\n      pop\n      jump\t// out\n        /* \"#utility.yul\":2605:3015   */\n    tag_44:\n        /* \"#utility.yul\":2645:2652   */\n      0x00\n        /* \"#utility.yul\":2668:2688   */\n      tag_181\n        /* \"#utility.yul\":2686:2687   */\n      dup3\n        /* \"#utility.yul\":2668:2688   */\n      tag_133\n      jump\t// in\n    tag_181:\n        /* \"#utility.yul\":2663:2688   */\n      swap2\n      pop\n        /* \"#utility.yul\":2702:2722   */\n      tag_182\n        /* \"#utility.yul\":2720:2721   */\n      dup4\n        /* \"#utility.yul\":2702:2722   */\n      tag_133\n      jump\t// in\n    tag_182:\n        /* \"#utility.yul\":2697:2722   */\n      swap3\n      pop\n        /* \"#utility.yul\":2757:2758   */\n      dup3\n        /* \"#utility.yul\":2754:2755   */\n      dup3\n        /* \"#utility.yul\":2750:2759   */\n      mul\n        /* \"#utility.yul\":2779:2809   */\n      tag_183\n        /* \"#utility.yul\":2797:2808   */\n      dup2\n        /* \"#utility.yul\":2779:2809   */\n      tag_133\n      jump\t// in\n    tag_183:\n        /* \"#utility.yul\":2768:2809   */\n      swap2\n      pop\n        /* \"#utility.yul\":2958:2959   */\n      dup3\n        /* \"#utility.yul\":2949:2956   */\n      dup3\n        /* \"#utility.yul\":2945:2960   */\n      div\n        /* \"#utility.yul\":2942:2943   */\n      dup5\n        /* \"#utility.yul\":2939:2961   */\n      eq\n        /* \"#utility.yul\":2919:2920   */\n      dup4\n        /* \"#utility.yul\":2912:2921   */\n      iszero\n        /* \"#utility.yul\":2892:2975   */\n      or\n        /* \"#utility.yul\":2869:3008   */\n      tag_184\n      jumpi\n        /* \"#utility.yul\":2988:3006   */\n      tag_185\n      tag_137\n      jump\t// in\n    tag_185:\n        /* \"#utility.yul\":2869:3008   */\n    tag_184:\n        /* \"#utility.yul\":2653:3015   */\n      pop\n        /* \"#utility.yul\":2605:3015   */\n      swap3\n      swap2\n      pop\n      pop\n      jump\t// out\n        /* \"#utility.yul\":3021:3201   */\n    tag_138:\n        /* \"#utility.yul\":3069:3146   */\n      0x4e487b7100000000000000000000000000000000000000000000000000000000\n        /* \"#utility.yul\":3066:3067   */\n      0x00\n        /* \"#utility.yul\":3059:3147   */\n      mstore\n        /* \"#utility.yul\":3166:3170   */\n      0x12\n        /* \"#utility.yul\":3163:3164   */\n      0x04\n        /* \"#utility.yul\":3156:3171   */\n      mstore\n        /* \"#utility.yul\":3190:3194   */\n      0x24\n        /* \"#utility.yul\":3187:3188   */\n      0x00\n        /* \"#utility.yul\":3180:3195   */\n      revert\n        /* \"#utility.yul\":3207:3392   */\n    tag_46:\n        /* \"#utility.yul\":3247:3248   */\n      0x00\n        /* \"#utility.yul\":3264:3284   */\n      tag_188\n        /* \"#utility.yul\":3282:3283   */\n      dup3\n        /* \"#utility.yul\":3264:3284   */\n      tag_133\n      jump\t// in\n    tag_188:\n        /* \"#utility.yul\":3259:3284   */\n      swap2\n      pop\n        /* \"#utility.yul\":3298:3318   */\n      tag_189\n        /* \"#utility.yul\":3316:3317   */\n      dup4\n        /* \"#utility.yul\":3298:3318   */\n      tag_133\n      jump\t// in\n    tag_189:\n        /* \"#utility.yul\":3293:3318   */\n      swap3\n      pop\n        /* \"#utility.yul\":3337:3338   */\n      dup3\n        /* \"#utility.yul\":3327:3362   */\n      tag_190\n      jumpi\n        /* \"#utility.yul\":3342:3360   */\n      tag_191\n      tag_138\n      jump\t// in\n    tag_191:\n        /* \"#utility.yul\":3327:3362   */\n    tag_190:\n        /* \"#utility.yul\":3384:3385   */\n      dup3\n        /* \"#utility.yul\":3381:3382   */\n      dup3\n        /* \"#utility.yul\":3377:3386   */\n      div\n        /* \"#utility.yul\":3372:3386   */\n      swap1\n      pop\n        /* \"#utility.yul\":3207:3392   */\n      swap3\n      swap2\n      pop\n      pop\n      jump\t// out\n        /* \"#utility.yul\":3398:3589   */\n    tag_48:\n        /* \"#utility.yul\":3438:3441   */\n      0x00\n        /* \"#utility.yul\":3457:3477   */\n      tag_193\n        /* \"#utility.yul\":3475:3476   */\n      dup3\n        /* \"#utility.yul\":3457:3477   */\n      tag_133\n      jump\t// in\n    tag_193:\n        /* \"#utility.yul\":3452:3477   */\n      swap2\n      pop\n        /* \"#utility.yul\":3491:3511   */\n      tag_194\n        /* \"#utility.yul\":3509:3510   */\n      dup4\n        /* \"#utility.yul\":3491:3511   */\n      tag_133\n      jump\t// in\n    tag_194:\n        /* \"#utility.yul\":3486:3511   */\n      swap3\n      pop\n        /* \"#utility.yul\":3534:3535   */\n      dup3\n        /* \"#utility.yul\":3531:3532   */\n      dup3\n        /* \"#utility.yul\":3527:3536   */\n      add\n        /* \"#utility.yul\":3520:3536   */\n      swap1\n      pop\n        /* \"#utility.yul\":3555:3558   */\n      dup1\n        /* \"#utility.yul\":3552:3553   */\n      dup3\n        /* \"#utility.yul\":3549:3559   */\n      gt\n        /* \"#utility.yul\":3546:3582   */\n      iszero\n      tag_195\n      jumpi\n        /* \"#utility.yul\":3562:3580   */\n      tag_196\n      tag_137\n      jump\t// in\n    tag_196:\n        /* \"#utility.yul\":3546:3582   */\n    tag_195:\n        /* \"#utility.yul\":3398:3589   */\n      swap3\n      swap2\n      pop\n      pop\n      jump\t// out\n        /* \"#utility.yul\":3595:3713   */\n    tag_139:\n        /* \"#utility.yul\":3682:3706   */\n      tag_198\n        /* \"#utility.yul\":3700:3705   */\n      dup2\n        /* \"#utility.yul\":3682:3706   */\n      tag_130\n      jump\t// in\n    tag_198:\n        /* \"#utility.yul\":3677:3680   */\n      dup3\n        /* \"#utility.yul\":3670:3707   */\n      mstore\n        /* \"#utility.yul\":3595:3713   */\n      pop\n      pop\n      jump\t// out\n        /* \"#utility.yul\":3719:4051   */\n    tag_57:\n        /* \"#utility.yul\":3840:3844   */\n      0x00\n        /* \"#utility.yul\":3878:3880   */\n      0x40\n        /* \"#utility.yul\":3867:3876   */\n      dup3\n        /* \"#utility.yul\":3863:3881   */\n      add\n        /* \"#utility.yul\":3855:3881   */\n      swap1\n      pop\n        /* \"#utility.yul\":3891:3962   */\n      tag_200\n        /* \"#utility.yul\":3959:3960   */\n      0x00\n        /* \"#utility.yul\":3948:3957   */\n      dup4\n        /* \"#utility.yul\":3944:3961   */\n      add\n        /* \"#utility.yul\":3935:3941   */\n      dup6\n        /* \"#utility.yul\":3891:3962   */\n      tag_139\n      jump\t// in\n    tag_200:\n        /* \"#utility.yul\":3972:4044   */\n      tag_201\n        /* \"#utility.yul\":4040:4042   */\n      0x20\n        /* \"#utility.yul\":4029:4038   */\n      dup4\n        /* \"#utility.yul\":4025:4043   */\n      add\n        /* \"#utility.yul\":4016:4022   */\n      dup5\n        /* \"#utility.yul\":3972:4044   */\n      tag_134\n      jump\t// in\n    tag_201:\n        /* \"#utility.yul\":3719:4051   */\n      swap4\n      swap3\n      pop\n      pop\n      pop\n      jump\t// out\n        /* \"#utility.yul\":4057:4147   */\n    tag_140:\n        /* \"#utility.yul\":4091:4098   */\n      0x00\n        /* \"#utility.yul\":4134:4139   */\n      dup2\n        /* \"#utility.yul\":4127:4140   */\n      iszero\n        /* \"#utility.yul\":4120:4141   */\n      iszero\n        /* \"#utility.yul\":4109:4141   */\n      swap1\n      pop\n        /* \"#utility.yul\":4057:4147   */\n      swap2\n      swap1\n      pop\n      jump\t// out\n        /* \"#utility.yul\":4153:4269   */\n    tag_141:\n        /* \"#utility.yul\":4223:4244   */\n      tag_204\n        /* \"#utility.yul\":4238:4243   */\n      dup2\n        /* \"#utility.yul\":4223:4244   */\n      tag_140\n      jump\t// in\n    tag_204:\n        /* \"#utility.yul\":4216:4221   */\n      dup2\n        /* \"#utility.yul\":4213:4245   */\n      eq\n        /* \"#utility.yul\":4203:4263   */\n      tag_205\n      jumpi\n        /* \"#utility.yul\":4259:4260   */\n      0x00\n        /* \"#utility.yul\":4256:4257   */\n      dup1\n        /* \"#utility.yul\":4249:4261   */\n      revert\n        /* \"#utility.yul\":4203:4263   */\n    tag_205:\n        /* \"#utility.yul\":4153:4269   */\n      pop\n      jump\t// out\n        /* \"#utility.yul\":4275:4412   */\n    tag_142:\n        /* \"#utility.yul\":4329:4334   */\n      0x00\n        /* \"#utility.yul\":4360:4366   */\n      dup2\n        /* \"#utility.yul\":4354:4367   */\n      mload\n        /* \"#utility.yul\":4345:4367   */\n      swap1\n      pop\n        /* \"#utility.yul\":4376:4406   */\n      tag_207\n        /* \"#utility.yul\":4400:4405   */\n      dup2\n        /* \"#utility.yul\":4376:4406   */\n      tag_141\n      jump\t// in\n    tag_207:\n        /* \"#utility.yul\":4275:4412   */\n      swap3\n      swap2\n      pop\n      pop\n      jump\t// out\n        /* \"#utility.yul\":4418:4763   */\n    tag_61:\n        /* \"#utility.yul\":4485:4491   */\n      0x00\n        /* \"#utility.yul\":4534:4536   */\n      0x20\n        /* \"#utility.yul\":4522:4531   */\n      dup3\n        /* \"#utility.yul\":4513:4520   */\n      dup5\n        /* \"#utility.yul\":4509:4532   */\n      sub\n        /* \"#utility.yul\":4505:4537   */\n      slt\n        /* \"#utility.yul\":4502:4621   */\n      iszero\n      tag_209\n      jumpi\n        /* \"#utility.yul\":4540:4619   */\n      tag_210\n      tag_127\n      jump\t// in\n    tag_210:\n        /* \"#utility.yul\":4502:4621   */\n    tag_209:\n        /* \"#utility.yul\":4660:4661   */\n      0x00\n        /* \"#utility.yul\":4685:4746   */\n      tag_211\n        /* \"#utility.yul\":4738:4745   */\n      dup5\n        /* \"#utility.yul\":4729:4735   */\n      dup3\n        /* \"#utility.yul\":4718:4727   */\n      dup6\n        /* \"#utility.yul\":4714:4736   */\n      add\n        /* \"#utility.yul\":4685:4746   */\n      tag_142\n      jump\t// in\n    tag_211:\n        /* \"#utility.yul\":4675:4746   */\n      swap2\n      pop\n        /* \"#utility.yul\":4631:4756   */\n      pop\n        /* \"#utility.yul\":4418:4763   */\n      swap3\n      swap2\n      pop\n      pop\n      jump\t// out\n        /* \"#utility.yul\":4769:5211   */\n    tag_81:\n        /* \"#utility.yul\":4918:4922   */\n      0x00\n        /* \"#utility.yul\":4956:4958   */\n      0x60\n        /* \"#utility.yul\":4945:4954   */\n      dup3\n        /* \"#utility.yul\":4941:4959   */\n      add\n        /* \"#utility.yul\":4933:4959   */\n      swap1\n      pop\n        /* \"#utility.yul\":4969:5040   */\n      tag_213\n        /* \"#utility.yul\":5037:5038   */\n      0x00\n        /* \"#utility.yul\":5026:5035   */\n      dup4\n        /* \"#utility.yul\":5022:5039   */\n      add\n        /* \"#utility.yul\":5013:5019   */\n      dup7\n        /* \"#utility.yul\":4969:5040   */\n      tag_139\n      jump\t// in\n    tag_213:\n        /* \"#utility.yul\":5050:5122   */\n      tag_214\n        /* \"#utility.yul\":5118:5120   */\n      0x20\n        /* \"#utility.yul\":5107:5116   */\n      dup4\n        /* \"#utility.yul\":5103:5121   */\n      add\n        /* \"#utility.yul\":5094:5100   */\n      dup6\n        /* \"#utility.yul\":5050:5122   */\n      tag_139\n      jump\t// in\n    tag_214:\n        /* \"#utility.yul\":5132:5204   */\n      tag_215\n        /* \"#utility.yul\":5200:5202   */\n      0x40\n        /* \"#utility.yul\":5189:5198   */\n      dup4\n        /* \"#utility.yul\":5185:5203   */\n      add\n        /* \"#utility.yul\":5176:5182   */\n      dup5\n        /* \"#utility.yul\":5132:5204   */\n      tag_134\n      jump\t// in\n    tag_215:\n        /* \"#utility.yul\":4769:5211   */\n      swap5\n      swap4\n      pop\n      pop\n      pop\n      pop\n      jump\t// out\n        /* \"#utility.yul\":5217:5439   */\n    tag_110:\n        /* \"#utility.yul\":5310:5314   */\n      0x00\n        /* \"#utility.yul\":5348:5350   */\n      0x20\n        /* \"#utility.yul\":5337:5346   */\n      dup3\n        /* \"#utility.yul\":5333:5351   */\n      add\n        /* \"#utility.yul\":5325:5351   */\n      swap1\n      pop\n        /* \"#utility.yul\":5361:5432   */\n      tag_217\n        /* \"#utility.yul\":5429:5430   */\n      0x00\n        /* \"#utility.yul\":5418:5427   */\n      dup4\n        /* \"#utility.yul\":5414:5431   */\n      add\n        /* \"#utility.yul\":5405:5411   */\n      dup5\n        /* \"#utility.yul\":5361:5432   */\n      tag_139\n      jump\t// in\n    tag_217:\n        /* \"#utility.yul\":5217:5439   */\n      swap3\n      swap2\n      pop\n      pop\n      jump\t// out\n        /* \"#utility.yul\":5445:5588   */\n    tag_143:\n        /* \"#utility.yul\":5502:5507   */\n      0x00\n        /* \"#utility.yul\":5533:5539   */\n      dup2\n        /* \"#utility.yul\":5527:5540   */\n      mload\n        /* \"#utility.yul\":5518:5540   */\n      swap1\n      pop\n        /* \"#utility.yul\":5549:5582   */\n      tag_219\n        /* \"#utility.yul\":5576:5581   */\n      dup2\n        /* \"#utility.yul\":5549:5582   */\n      tag_135\n      jump\t// in\n    tag_219:\n        /* \"#utility.yul\":5445:5588   */\n      swap3\n      swap2\n      pop\n      pop\n      jump\t// out\n        /* \"#utility.yul\":5594:5945   */\n    tag_114:\n        /* \"#utility.yul\":5664:5670   */\n      0x00\n        /* \"#utility.yul\":5713:5715   */\n      0x20\n        /* \"#utility.yul\":5701:5710   */\n      dup3\n        /* \"#utility.yul\":5692:5699   */\n      dup5\n        /* \"#utility.yul\":5688:5711   */\n      sub\n        /* \"#utility.yul\":5684:5716   */\n      slt\n        /* \"#utility.yul\":5681:5800   */\n      iszero\n      tag_221\n      jumpi\n        /* \"#utility.yul\":5719:5798   */\n      tag_222\n      tag_127\n      jump\t// in\n    tag_222:\n        /* \"#utility.yul\":5681:5800   */\n    tag_221:\n        /* \"#utility.yul\":5839:5840   */\n      0x00\n        /* \"#utility.yul\":5864:5928   */\n      tag_223\n        /* \"#utility.yul\":5920:5927   */\n      dup5\n        /* \"#utility.yul\":5911:5917   */\n      dup3\n        /* \"#utility.yul\":5900:5909   */\n      dup6\n        /* \"#utility.yul\":5896:5918   */\n      add\n        /* \"#utility.yul\":5864:5928   */\n      tag_143\n      jump\t// in\n    tag_223:\n        /* \"#utility.yul\":5854:5928   */\n      swap2\n      pop\n        /* \"#utility.yul\":5810:5938   */\n      pop\n        /* \"#utility.yul\":5594:5945   */\n      swap3\n      swap2\n      pop\n      pop\n      jump\t// out\n\n    auxdata: 0xa2646970667358221220b57f2940f5b12fd2a0cbbe2bf61729adc772b0a928d557c94c6baf8d936d496d64736f6c63430008140033\n}\n",
				"bytecode": {
					"linkReferences": {},
					"object": "60e060405234801562000010575f80fd5b50604051620011093803806200110983398181016040528101906200003691906200013f565b3373ffffffffffffffffffffffffffffffffffffffff1660c08173ffffffffffffffffffffffffffffffffffffffff16815250508173ffffffffffffffffffffffffffffffffffffffff1660808173ffffffffffffffffffffffffffffffffffffffff16815250508073ffffffffffffffffffffffffffffffffffffffff1660a08173ffffffffffffffffffffffffffffffffffffffff1681525050505062000184565b5f80fd5b5f73ffffffffffffffffffffffffffffffffffffffff82169050919050565b5f6200010982620000de565b9050919050565b6200011b81620000fd565b811462000126575f80fd5b50565b5f81519050620001398162000110565b92915050565b5f8060408385031215620001585762000157620000da565b5b5f620001678582860162000129565b92505060206200017a8582860162000129565b9150509250929050565b60805160a05160c051610f45620001c45f395f81816108a80152610b1401525f81816105ba0152610a4e01525f81816103ae01526107480152610f455ff3fe608060405234801561000f575f80fd5b5060043610610085575f3560e01c8063baf3683011610059578063baf36830146100fb578063cb7032ab14610119578063cc1a378f14610135578063edf26bc71461015157610085565b80628cc262146100895780632e1a7d4d146100b95780633d18b912146100d5578063a694fc3a146100df575b5f80fd5b6100a3600480360381019061009e9190610c0a565b61016f565b6040516100b09190610c4d565b60405180910390f35b6100d360048036038101906100ce9190610c90565b61026a565b005b6100dd61044c565b005b6100f960048036038101906100f49190610c90565b610659565b005b61010361083d565b6040516101109190610c4d565b60405180910390f35b610133600480360381019061012e9190610c90565b6108a6565b005b61014f600480360381019061014a9190610c90565b610b12565b005b610159610b80565b6040516101669190610c4d565b60405180910390f35b5f60065f8373ffffffffffffffffffffffffffffffffffffffff1673ffffffffffffffffffffffffffffffffffffffff1681526020019081526020015f2054670de0b6b3a764000060055f8573ffffffffffffffffffffffffffffffffffffffff1673ffffffffffffffffffffffffffffffffffffffff1681526020019081526020015f20546101fd61083d565b6102079190610ce8565b60085f8673ffffffffffffffffffffffffffffffffffffffff1673ffffffffffffffffffffffffffffffffffffffff1681526020019081526020015f205461024f9190610d1b565b6102599190610d89565b6102639190610db9565b9050919050565b3361027361083d565b600481905550610281610b80565b6002819055505f73ffffffffffffffffffffffffffffffffffffffff168173ffffffffffffffffffffffffffffffffffffffff16036102be575f80fd5b6102c78161016f565b60065f8373ffffffffffffffffffffffffffffffffffffffff1673ffffffffffffffffffffffffffffffffffffffff1681526020019081526020015f208190555060045460055f8373ffffffffffffffffffffffffffffffffffffffff1673ffffffffffffffffffffffffffffffffffffffff1681526020019081526020015f20819055505f8211610357575f80fd5b8160085f3373ffffffffffffffffffffffffffffffffffffffff1673ffffffffffffffffffffffffffffffffffffffff1681526020019081526020015f205f828254039250508190555081600754036007819055507f000000000000000000000000000000000000000000000000000000000000000073ffffffffffffffffffffffffffffffffffffffff1663a9059cbb33846040518363ffffffff1660e01b8152600401610407929190610dfb565b6020604051808303815f875af1158015610423573d5f803e3d5ffd5b505050506040513d601f19601f820116820180604052508101906104479190610e57565b505050565b3361045561083d565b600481905550610463610b80565b6002819055505f73ffffffffffffffffffffffffffffffffffffffff168173ffffffffffffffffffffffffffffffffffffffff16036104a0575f80fd5b6104a98161016f565b60065f8373ffffffffffffffffffffffffffffffffffffffff1673ffffffffffffffffffffffffffffffffffffffff1681526020019081526020015f208190555060045460055f8373ffffffffffffffffffffffffffffffffffffffff1673ffffffffffffffffffffffffffffffffffffffff1681526020019081526020015f20819055505f60065f3373ffffffffffffffffffffffffffffffffffffffff1673ffffffffffffffffffffffffffffffffffffffff1681526020019081526020015f205490505f8114610655575f60065f3373ffffffffffffffffffffffffffffffffffffffff1673ffffffffffffffffffffffffffffffffffffffff1681526020019081526020015f20819055507f000000000000000000000000000000000000000000000000000000000000000073ffffffffffffffffffffffffffffffffffffffff1663a9059cbb33836040518363ffffffff1660e01b8152600401610613929190610dfb565b6020604051808303815f875af115801561062f573d5f803e3d5ffd5b505050506040513d601f19601f820116820180604052508101906106539190610e57565b505b5050565b3361066261083d565b600481905550610670610b80565b6002819055505f73ffffffffffffffffffffffffffffffffffffffff168173ffffffffffffffffffffffffffffffffffffffff16036106ad575f80fd5b6106b68161016f565b60065f8373ffffffffffffffffffffffffffffffffffffffff1673ffffffffffffffffffffffffffffffffffffffff1681526020019081526020015f208190555060045460055f8373ffffffffffffffffffffffffffffffffffffffff1673ffffffffffffffffffffffffffffffffffffffff1681526020019081526020015f20819055505f8211610746575f80fd5b7f000000000000000000000000000000000000000000000000000000000000000073ffffffffffffffffffffffffffffffffffffffff166323b872dd3330856040518463ffffffff1660e01b81526004016107a393929190610e82565b6020604051808303815f875af11580156107bf573d5f803e3d5ffd5b505050506040513d601f19601f820116820180604052508101906107e39190610e57565b508160085f3373ffffffffffffffffffffffffffffffffffffffff1673ffffffffffffffffffffffffffffffffffffffff1681526020019081526020015f205f828254019250508190555081600754016007819055505050565b5f80600754036108515760045490506108a3565b600754670de0b6b3a7640000600254610868610b80565b6108729190610ce8565b60035461087f9190610d1b565b6108899190610d1b565b6004546108969190610d1b565b6108a09190610d89565b90505b90565b7f000000000000000000000000000000000000000000000000000000000000000073ffffffffffffffffffffffffffffffffffffffff163373ffffffffffffffffffffffffffffffffffffffff16146108fd575f80fd5b5f61090661083d565b600481905550610914610b80565b6002819055505f73ffffffffffffffffffffffffffffffffffffffff168173ffffffffffffffffffffffffffffffffffffffff1603610951575f80fd5b61095a8161016f565b60065f8373ffffffffffffffffffffffffffffffffffffffff1673ffffffffffffffffffffffffffffffffffffffff1681526020019081526020015f208190555060045460055f8373ffffffffffffffffffffffffffffffffffffffff1673ffffffffffffffffffffffffffffffffffffffff1681526020019081526020015f2081905550426001541115610a01575f54826109f69190610d89565b600381905550610a3f565b5f42600154610a109190610ce8565b600354610a1d9190610d1b565b90505f548382610a2d9190610db9565b610a379190610d89565b600381905550505b5f60035403610a4c575f80fd5b7f000000000000000000000000000000000000000000000000000000000000000073ffffffffffffffffffffffffffffffffffffffff166370a08231306040518263ffffffff1660e01b8152600401610aa59190610eb7565b602060405180830381865afa158015610ac0573d5f803e3d5ffd5b505050506040513d601f19601f82011682018060405250810190610ae49190610ee4565b5f54600354610af39190610d1b565b1115610afd575f80fd5b5f544201600181905550426002819055505050565b7f000000000000000000000000000000000000000000000000000000000000000073ffffffffffffffffffffffffffffffffffffffff163373ffffffffffffffffffffffffffffffffffffffff1614610b69575f80fd5b426001541115610b77575f80fd5b805f8190555050565b5f610b8d42600154610b92565b905090565b5f818311610ba257829050610ba6565b8190505b92915050565b5f80fd5b5f73ffffffffffffffffffffffffffffffffffffffff82169050919050565b5f610bd982610bb0565b9050919050565b610be981610bcf565b8114610bf3575f80fd5b50565b5f81359050610c0481610be0565b92915050565b5f60208284031215610c1f57610c1e610bac565b5b5f610c2c84828501610bf6565b91505092915050565b5f819050919050565b610c4781610c35565b82525050565b5f602082019050610c605f830184610c3e565b92915050565b610c6f81610c35565b8114610c79575f80fd5b50565b5f81359050610c8a81610c66565b92915050565b5f60208284031215610ca557610ca4610bac565b5b5f610cb284828501610c7c565b91505092915050565b7f4e487b71000000000000000000000000000000000000000000000000000000005f52601160045260245ffd5b5f610cf282610c35565b9150610cfd83610c35565b9250828203905081811115610d1557610d14610cbb565b5b92915050565b5f610d2582610c35565b9150610d3083610c35565b9250828202610d3e81610c35565b91508282048414831517610d5557610d54610cbb565b5b5092915050565b7f4e487b71000000000000000000000000000000000000000000000000000000005f52601260045260245ffd5b5f610d9382610c35565b9150610d9e83610c35565b925082610dae57610dad610d5c565b5b828204905092915050565b5f610dc382610c35565b9150610dce83610c35565b9250828201905080821115610de657610de5610cbb565b5b92915050565b610df581610bcf565b82525050565b5f604082019050610e0e5f830185610dec565b610e1b6020830184610c3e565b9392505050565b5f8115159050919050565b610e3681610e22565b8114610e40575f80fd5b50565b5f81519050610e5181610e2d565b92915050565b5f60208284031215610e6c57610e6b610bac565b5b5f610e7984828501610e43565b91505092915050565b5f606082019050610e955f830186610dec565b610ea26020830185610dec565b610eaf6040830184610c3e565b949350505050565b5f602082019050610eca5f830184610dec565b92915050565b5f81519050610ede81610c66565b92915050565b5f60208284031215610ef957610ef8610bac565b5b5f610f0684828501610ed0565b9150509291505056fea2646970667358221220b57f2940f5b12fd2a0cbbe2bf61729adc772b0a928d557c94c6baf8d936d496d64736f6c63430008140033",
					"opcodes": "PUSH1 0xE0 PUSH1 0x40 MSTORE CALLVALUE DUP1 ISZERO PUSH3 0x10 JUMPI PUSH0 DUP1 REVERT JUMPDEST POP PUSH1 0x40 MLOAD PUSH3 0x1109 CODESIZE SUB DUP1 PUSH3 0x1109 DUP4 CODECOPY DUP2 DUP2 ADD PUSH1 0x40 MSTORE DUP2 ADD SWAP1 PUSH3 0x36 SWAP2 SWAP1 PUSH3 0x13F JUMP JUMPDEST CALLER PUSH20 0xFFFFFFFFFFFFFFFFFFFFFFFFFFFFFFFFFFFFFFFF AND PUSH1 0xC0 DUP2 PUSH20 0xFFFFFFFFFFFFFFFFFFFFFFFFFFFFFFFFFFFFFFFF AND DUP2 MSTORE POP POP DUP2 PUSH20 0xFFFFFFFFFFFFFFFFFFFFFFFFFFFFFFFFFFFFFFFF AND PUSH1 0x80 DUP2 PUSH20 0xFFFFFFFFFFFFFFFFFFFFFFFFFFFFFFFFFFFFFFFF AND DUP2 MSTORE POP POP DUP1 PUSH20 0xFFFFFFFFFFFFFFFFFFFFFFFFFFFFFFFFFFFFFFFF AND PUSH1 0xA0 DUP2 PUSH20 0xFFFFFFFFFFFFFFFFFFFFFFFFFFFFFFFFFFFFFFFF AND DUP2 MSTORE POP POP POP POP PUSH3 0x184 JUMP JUMPDEST PUSH0 DUP1 REVERT JUMPDEST PUSH0 PUSH20 0xFFFFFFFFFFFFFFFFFFFFFFFFFFFFFFFFFFFFFFFF DUP3 AND SWAP1 POP SWAP2 SWAP1 POP JUMP JUMPDEST PUSH0 PUSH3 0x109 DUP3 PUSH3 0xDE JUMP JUMPDEST SWAP1 POP SWAP2 SWAP1 POP JUMP JUMPDEST PUSH3 0x11B DUP2 PUSH3 0xFD JUMP JUMPDEST DUP2 EQ PUSH3 0x126 JUMPI PUSH0 DUP1 REVERT JUMPDEST POP JUMP JUMPDEST PUSH0 DUP2 MLOAD SWAP1 POP PUSH3 0x139 DUP2 PUSH3 0x110 JUMP JUMPDEST SWAP3 SWAP2 POP POP JUMP JUMPDEST PUSH0 DUP1 PUSH1 0x40 DUP4 DUP6 SUB SLT ISZERO PUSH3 0x158 JUMPI PUSH3 0x157 PUSH3 0xDA JUMP JUMPDEST JUMPDEST PUSH0 PUSH3 0x167 DUP6 DUP3 DUP7 ADD PUSH3 0x129 JUMP JUMPDEST SWAP3 POP POP PUSH1 0x20 PUSH3 0x17A DUP6 DUP3 DUP7 ADD PUSH3 0x129 JUMP JUMPDEST SWAP2 POP POP SWAP3 POP SWAP3 SWAP1 POP JUMP JUMPDEST PUSH1 0x80 MLOAD PUSH1 0xA0 MLOAD PUSH1 0xC0 MLOAD PUSH2 0xF45 PUSH3 0x1C4 PUSH0 CODECOPY PUSH0 DUP2 DUP2 PUSH2 0x8A8 ADD MSTORE PUSH2 0xB14 ADD MSTORE PUSH0 DUP2 DUP2 PUSH2 0x5BA ADD MSTORE PUSH2 0xA4E ADD MSTORE PUSH0 DUP2 DUP2 PUSH2 0x3AE ADD MSTORE PUSH2 0x748 ADD MSTORE PUSH2 0xF45 PUSH0 RETURN INVALID PUSH1 0x80 PUSH1 0x40 MSTORE CALLVALUE DUP1 ISZERO PUSH2 0xF JUMPI PUSH0 DUP1 REVERT JUMPDEST POP PUSH1 0x4 CALLDATASIZE LT PUSH2 0x85 JUMPI PUSH0 CALLDATALOAD PUSH1 0xE0 SHR DUP1 PUSH4 0xBAF36830 GT PUSH2 0x59 JUMPI DUP1 PUSH4 0xBAF36830 EQ PUSH2 0xFB JUMPI DUP1 PUSH4 0xCB7032AB EQ PUSH2 0x119 JUMPI DUP1 PUSH4 0xCC1A378F EQ PUSH2 0x135 JUMPI DUP1 PUSH4 0xEDF26BC7 EQ PUSH2 0x151 JUMPI PUSH2 0x85 JUMP JUMPDEST DUP1 PUSH3 0x8CC262 EQ PUSH2 0x89 JUMPI DUP1 PUSH4 0x2E1A7D4D EQ PUSH2 0xB9 JUMPI DUP1 PUSH4 0x3D18B912 EQ PUSH2 0xD5 JUMPI DUP1 PUSH4 0xA694FC3A EQ PUSH2 0xDF JUMPI JUMPDEST PUSH0 DUP1 REVERT JUMPDEST PUSH2 0xA3 PUSH1 0x4 DUP1 CALLDATASIZE SUB DUP2 ADD SWAP1 PUSH2 0x9E SWAP2 SWAP1 PUSH2 0xC0A JUMP JUMPDEST PUSH2 0x16F JUMP JUMPDEST PUSH1 0x40 MLOAD PUSH2 0xB0 SWAP2 SWAP1 PUSH2 0xC4D JUMP JUMPDEST PUSH1 0x40 MLOAD DUP1 SWAP2 SUB SWAP1 RETURN JUMPDEST PUSH2 0xD3 PUSH1 0x4 DUP1 CALLDATASIZE SUB DUP2 ADD SWAP1 PUSH2 0xCE SWAP2 SWAP1 PUSH2 0xC90 JUMP JUMPDEST PUSH2 0x26A JUMP JUMPDEST STOP JUMPDEST PUSH2 0xDD PUSH2 0x44C JUMP JUMPDEST STOP JUMPDEST PUSH2 0xF9 PUSH1 0x4 DUP1 CALLDATASIZE SUB DUP2 ADD SWAP1 PUSH2 0xF4 SWAP2 SWAP1 PUSH2 0xC90 JUMP JUMPDEST PUSH2 0x659 JUMP JUMPDEST STOP JUMPDEST PUSH2 0x103 PUSH2 0x83D JUMP JUMPDEST PUSH1 0x40 MLOAD PUSH2 0x110 SWAP2 SWAP1 PUSH2 0xC4D JUMP JUMPDEST PUSH1 0x40 MLOAD DUP1 SWAP2 SUB SWAP1 RETURN JUMPDEST PUSH2 0x133 PUSH1 0x4 DUP1 CALLDATASIZE SUB DUP2 ADD SWAP1 PUSH2 0x12E SWAP2 SWAP1 PUSH2 0xC90 JUMP JUMPDEST PUSH2 0x8A6 JUMP JUMPDEST STOP JUMPDEST PUSH2 0x14F PUSH1 0x4 DUP1 CALLDATASIZE SUB DUP2 ADD SWAP1 PUSH2 0x14A SWAP2 SWAP1 PUSH2 0xC90 JUMP JUMPDEST PUSH2 0xB12 JUMP JUMPDEST STOP JUMPDEST PUSH2 0x159 PUSH2 0xB80 JUMP JUMPDEST PUSH1 0x40 MLOAD PUSH2 0x166 SWAP2 SWAP1 PUSH2 0xC4D JUMP JUMPDEST PUSH1 0x40 MLOAD DUP1 SWAP2 SUB SWAP1 RETURN JUMPDEST PUSH0 PUSH1 0x6 PUSH0 DUP4 PUSH20 0xFFFFFFFFFFFFFFFFFFFFFFFFFFFFFFFFFFFFFFFF AND PUSH20 0xFFFFFFFFFFFFFFFFFFFFFFFFFFFFFFFFFFFFFFFF AND DUP2 MSTORE PUSH1 0x20 ADD SWAP1 DUP2 MSTORE PUSH1 0x20 ADD PUSH0 KECCAK256 SLOAD PUSH8 0xDE0B6B3A7640000 PUSH1 0x5 PUSH0 DUP6 PUSH20 0xFFFFFFFFFFFFFFFFFFFFFFFFFFFFFFFFFFFFFFFF AND PUSH20 0xFFFFFFFFFFFFFFFFFFFFFFFFFFFFFFFFFFFFFFFF AND DUP2 MSTORE PUSH1 0x20 ADD SWAP1 DUP2 MSTORE PUSH1 0x20 ADD PUSH0 KECCAK256 SLOAD PUSH2 0x1FD PUSH2 0x83D JUMP JUMPDEST PUSH2 0x207 SWAP2 SWAP1 PUSH2 0xCE8 JUMP JUMPDEST PUSH1 0x8 PUSH0 DUP7 PUSH20 0xFFFFFFFFFFFFFFFFFFFFFFFFFFFFFFFFFFFFFFFF AND PUSH20 0xFFFFFFFFFFFFFFFFFFFFFFFFFFFFFFFFFFFFFFFF AND DUP2 MSTORE PUSH1 0x20 ADD SWAP1 DUP2 MSTORE PUSH1 0x20 ADD PUSH0 KECCAK256 SLOAD PUSH2 0x24F SWAP2 SWAP1 PUSH2 0xD1B JUMP JUMPDEST PUSH2 0x259 SWAP2 SWAP1 PUSH2 0xD89 JUMP JUMPDEST PUSH2 0x263 SWAP2 SWAP1 PUSH2 0xDB9 JUMP JUMPDEST SWAP1 POP SWAP2 SWAP1 POP JUMP JUMPDEST CALLER PUSH2 0x273 PUSH2 0x83D JUMP JUMPDEST PUSH1 0x4 DUP2 SWAP1 SSTORE POP PUSH2 0x281 PUSH2 0xB80 JUMP JUMPDEST PUSH1 0x2 DUP2 SWAP1 SSTORE POP PUSH0 PUSH20 0xFFFFFFFFFFFFFFFFFFFFFFFFFFFFFFFFFFFFFFFF AND DUP2 PUSH20 0xFFFFFFFFFFFFFFFFFFFFFFFFFFFFFFFFFFFFFFFF AND SUB PUSH2 0x2BE JUMPI PUSH0 DUP1 REVERT JUMPDEST PUSH2 0x2C7 DUP2 PUSH2 0x16F JUMP JUMPDEST PUSH1 0x6 PUSH0 DUP4 PUSH20 0xFFFFFFFFFFFFFFFFFFFFFFFFFFFFFFFFFFFFFFFF AND PUSH20 0xFFFFFFFFFFFFFFFFFFFFFFFFFFFFFFFFFFFFFFFF AND DUP2 MSTORE PUSH1 0x20 ADD SWAP1 DUP2 MSTORE PUSH1 0x20 ADD PUSH0 KECCAK256 DUP2 SWAP1 SSTORE POP PUSH1 0x4 SLOAD PUSH1 0x5 PUSH0 DUP4 PUSH20 0xFFFFFFFFFFFFFFFFFFFFFFFFFFFFFFFFFFFFFFFF AND PUSH20 0xFFFFFFFFFFFFFFFFFFFFFFFFFFFFFFFFFFFFFFFF AND DUP2 MSTORE PUSH1 0x20 ADD SWAP1 DUP2 MSTORE PUSH1 0x20 ADD PUSH0 KECCAK256 DUP2 SWAP1 SSTORE POP PUSH0 DUP3 GT PUSH2 0x357 JUMPI PUSH0 DUP1 REVERT JUMPDEST DUP2 PUSH1 0x8 PUSH0 CALLER PUSH20 0xFFFFFFFFFFFFFFFFFFFFFFFFFFFFFFFFFFFFFFFF AND PUSH20 0xFFFFFFFFFFFFFFFFFFFFFFFFFFFFFFFFFFFFFFFF AND DUP2 MSTORE PUSH1 0x20 ADD SWAP1 DUP2 MSTORE PUSH1 0x20 ADD PUSH0 KECCAK256 PUSH0 DUP3 DUP3 SLOAD SUB SWAP3 POP POP DUP2 SWAP1 SSTORE POP DUP2 PUSH1 0x7 SLOAD SUB PUSH1 0x7 DUP2 SWAP1 SSTORE POP PUSH32 0x0 PUSH20 0xFFFFFFFFFFFFFFFFFFFFFFFFFFFFFFFFFFFFFFFF AND PUSH4 0xA9059CBB CALLER DUP5 PUSH1 0x40 MLOAD DUP4 PUSH4 0xFFFFFFFF AND PUSH1 0xE0 SHL DUP2 MSTORE PUSH1 0x4 ADD PUSH2 0x407 SWAP3 SWAP2 SWAP1 PUSH2 0xDFB JUMP JUMPDEST PUSH1 0x20 PUSH1 0x40 MLOAD DUP1 DUP4 SUB DUP2 PUSH0 DUP8 GAS CALL ISZERO DUP1 ISZERO PUSH2 0x423 JUMPI RETURNDATASIZE PUSH0 DUP1 RETURNDATACOPY RETURNDATASIZE PUSH0 REVERT JUMPDEST POP POP POP POP PUSH1 0x40 MLOAD RETURNDATASIZE PUSH1 0x1F NOT PUSH1 0x1F DUP3 ADD AND DUP3 ADD DUP1 PUSH1 0x40 MSTORE POP DUP2 ADD SWAP1 PUSH2 0x447 SWAP2 SWAP1 PUSH2 0xE57 JUMP JUMPDEST POP POP POP JUMP JUMPDEST CALLER PUSH2 0x455 PUSH2 0x83D JUMP JUMPDEST PUSH1 0x4 DUP2 SWAP1 SSTORE POP PUSH2 0x463 PUSH2 0xB80 JUMP JUMPDEST PUSH1 0x2 DUP2 SWAP1 SSTORE POP PUSH0 PUSH20 0xFFFFFFFFFFFFFFFFFFFFFFFFFFFFFFFFFFFFFFFF AND DUP2 PUSH20 0xFFFFFFFFFFFFFFFFFFFFFFFFFFFFFFFFFFFFFFFF AND SUB PUSH2 0x4A0 JUMPI PUSH0 DUP1 REVERT JUMPDEST PUSH2 0x4A9 DUP2 PUSH2 0x16F JUMP JUMPDEST PUSH1 0x6 PUSH0 DUP4 PUSH20 0xFFFFFFFFFFFFFFFFFFFFFFFFFFFFFFFFFFFFFFFF AND PUSH20 0xFFFFFFFFFFFFFFFFFFFFFFFFFFFFFFFFFFFFFFFF AND DUP2 MSTORE PUSH1 0x20 ADD SWAP1 DUP2 MSTORE PUSH1 0x20 ADD PUSH0 KECCAK256 DUP2 SWAP1 SSTORE POP PUSH1 0x4 SLOAD PUSH1 0x5 PUSH0 DUP4 PUSH20 0xFFFFFFFFFFFFFFFFFFFFFFFFFFFFFFFFFFFFFFFF AND PUSH20 0xFFFFFFFFFFFFFFFFFFFFFFFFFFFFFFFFFFFFFFFF AND DUP2 MSTORE PUSH1 0x20 ADD SWAP1 DUP2 MSTORE PUSH1 0x20 ADD PUSH0 KECCAK256 DUP2 SWAP1 SSTORE POP PUSH0 PUSH1 0x6 PUSH0 CALLER PUSH20 0xFFFFFFFFFFFFFFFFFFFFFFFFFFFFFFFFFFFFFFFF AND PUSH20 0xFFFFFFFFFFFFFFFFFFFFFFFFFFFFFFFFFFFFFFFF AND DUP2 MSTORE PUSH1 0x20 ADD SWAP1 DUP2 MSTORE PUSH1 0x20 ADD PUSH0 KECCAK256 SLOAD SWAP1 POP PUSH0 DUP2 EQ PUSH2 0x655 JUMPI PUSH0 PUSH1 0x6 PUSH0 CALLER PUSH20 0xFFFFFFFFFFFFFFFFFFFFFFFFFFFFFFFFFFFFFFFF AND PUSH20 0xFFFFFFFFFFFFFFFFFFFFFFFFFFFFFFFFFFFFFFFF AND DUP2 MSTORE PUSH1 0x20 ADD SWAP1 DUP2 MSTORE PUSH1 0x20 ADD PUSH0 KECCAK256 DUP2 SWAP1 SSTORE POP PUSH32 0x0 PUSH20 0xFFFFFFFFFFFFFFFFFFFFFFFFFFFFFFFFFFFFFFFF AND PUSH4 0xA9059CBB CALLER DUP4 PUSH1 0x40 MLOAD DUP4 PUSH4 0xFFFFFFFF AND PUSH1 0xE0 SHL DUP2 MSTORE PUSH1 0x4 ADD PUSH2 0x613 SWAP3 SWAP2 SWAP1 PUSH2 0xDFB JUMP JUMPDEST PUSH1 0x20 PUSH1 0x40 MLOAD DUP1 DUP4 SUB DUP2 PUSH0 DUP8 GAS CALL ISZERO DUP1 ISZERO PUSH2 0x62F JUMPI RETURNDATASIZE PUSH0 DUP1 RETURNDATACOPY RETURNDATASIZE PUSH0 REVERT JUMPDEST POP POP POP POP PUSH1 0x40 MLOAD RETURNDATASIZE PUSH1 0x1F NOT PUSH1 0x1F DUP3 ADD AND DUP3 ADD DUP1 PUSH1 0x40 MSTORE POP DUP2 ADD SWAP1 PUSH2 0x653 SWAP2 SWAP1 PUSH2 0xE57 JUMP JUMPDEST POP JUMPDEST POP POP JUMP JUMPDEST CALLER PUSH2 0x662 PUSH2 0x83D JUMP JUMPDEST PUSH1 0x4 DUP2 SWAP1 SSTORE POP PUSH2 0x670 PUSH2 0xB80 JUMP JUMPDEST PUSH1 0x2 DUP2 SWAP1 SSTORE POP PUSH0 PUSH20 0xFFFFFFFFFFFFFFFFFFFFFFFFFFFFFFFFFFFFFFFF AND DUP2 PUSH20 0xFFFFFFFFFFFFFFFFFFFFFFFFFFFFFFFFFFFFFFFF AND SUB PUSH2 0x6AD JUMPI PUSH0 DUP1 REVERT JUMPDEST PUSH2 0x6B6 DUP2 PUSH2 0x16F JUMP JUMPDEST PUSH1 0x6 PUSH0 DUP4 PUSH20 0xFFFFFFFFFFFFFFFFFFFFFFFFFFFFFFFFFFFFFFFF AND PUSH20 0xFFFFFFFFFFFFFFFFFFFFFFFFFFFFFFFFFFFFFFFF AND DUP2 MSTORE PUSH1 0x20 ADD SWAP1 DUP2 MSTORE PUSH1 0x20 ADD PUSH0 KECCAK256 DUP2 SWAP1 SSTORE POP PUSH1 0x4 SLOAD PUSH1 0x5 PUSH0 DUP4 PUSH20 0xFFFFFFFFFFFFFFFFFFFFFFFFFFFFFFFFFFFFFFFF AND PUSH20 0xFFFFFFFFFFFFFFFFFFFFFFFFFFFFFFFFFFFFFFFF AND DUP2 MSTORE PUSH1 0x20 ADD SWAP1 DUP2 MSTORE PUSH1 0x20 ADD PUSH0 KECCAK256 DUP2 SWAP1 SSTORE POP PUSH0 DUP3 GT PUSH2 0x746 JUMPI PUSH0 DUP1 REVERT JUMPDEST PUSH32 0x0 PUSH20 0xFFFFFFFFFFFFFFFFFFFFFFFFFFFFFFFFFFFFFFFF AND PUSH4 0x23B872DD CALLER ADDRESS DUP6 PUSH1 0x40 MLOAD DUP5 PUSH4 0xFFFFFFFF AND PUSH1 0xE0 SHL DUP2 MSTORE PUSH1 0x4 ADD PUSH2 0x7A3 SWAP4 SWAP3 SWAP2 SWAP1 PUSH2 0xE82 JUMP JUMPDEST PUSH1 0x20 PUSH1 0x40 MLOAD DUP1 DUP4 SUB DUP2 PUSH0 DUP8 GAS CALL ISZERO DUP1 ISZERO PUSH2 0x7BF JUMPI RETURNDATASIZE PUSH0 DUP1 RETURNDATACOPY RETURNDATASIZE PUSH0 REVERT JUMPDEST POP POP POP POP PUSH1 0x40 MLOAD RETURNDATASIZE PUSH1 0x1F NOT PUSH1 0x1F DUP3 ADD AND DUP3 ADD DUP1 PUSH1 0x40 MSTORE POP DUP2 ADD SWAP1 PUSH2 0x7E3 SWAP2 SWAP1 PUSH2 0xE57 JUMP JUMPDEST POP DUP2 PUSH1 0x8 PUSH0 CALLER PUSH20 0xFFFFFFFFFFFFFFFFFFFFFFFFFFFFFFFFFFFFFFFF AND PUSH20 0xFFFFFFFFFFFFFFFFFFFFFFFFFFFFFFFFFFFFFFFF AND DUP2 MSTORE PUSH1 0x20 ADD SWAP1 DUP2 MSTORE PUSH1 0x20 ADD PUSH0 KECCAK256 PUSH0 DUP3 DUP3 SLOAD ADD SWAP3 POP POP DUP2 SWAP1 SSTORE POP DUP2 PUSH1 0x7 SLOAD ADD PUSH1 0x7 DUP2 SWAP1 SSTORE POP POP POP JUMP JUMPDEST PUSH0 DUP1 PUSH1 0x7 SLOAD SUB PUSH2 0x851 JUMPI PUSH1 0x4 SLOAD SWAP1 POP PUSH2 0x8A3 JUMP JUMPDEST PUSH1 0x7 SLOAD PUSH8 0xDE0B6B3A7640000 PUSH1 0x2 SLOAD PUSH2 0x868 PUSH2 0xB80 JUMP JUMPDEST PUSH2 0x872 SWAP2 SWAP1 PUSH2 0xCE8 JUMP JUMPDEST PUSH1 0x3 SLOAD PUSH2 0x87F SWAP2 SWAP1 PUSH2 0xD1B JUMP JUMPDEST PUSH2 0x889 SWAP2 SWAP1 PUSH2 0xD1B JUMP JUMPDEST PUSH1 0x4 SLOAD PUSH2 0x896 SWAP2 SWAP1 PUSH2 0xD1B JUMP JUMPDEST PUSH2 0x8A0 SWAP2 SWAP1 PUSH2 0xD89 JUMP JUMPDEST SWAP1 POP JUMPDEST SWAP1 JUMP JUMPDEST PUSH32 0x0 PUSH20 0xFFFFFFFFFFFFFFFFFFFFFFFFFFFFFFFFFFFFFFFF AND CALLER PUSH20 0xFFFFFFFFFFFFFFFFFFFFFFFFFFFFFFFFFFFFFFFF AND EQ PUSH2 0x8FD JUMPI PUSH0 DUP1 REVERT JUMPDEST PUSH0 PUSH2 0x906 PUSH2 0x83D JUMP JUMPDEST PUSH1 0x4 DUP2 SWAP1 SSTORE POP PUSH2 0x914 PUSH2 0xB80 JUMP JUMPDEST PUSH1 0x2 DUP2 SWAP1 SSTORE POP PUSH0 PUSH20 0xFFFFFFFFFFFFFFFFFFFFFFFFFFFFFFFFFFFFFFFF AND DUP2 PUSH20 0xFFFFFFFFFFFFFFFFFFFFFFFFFFFFFFFFFFFFFFFF AND SUB PUSH2 0x951 JUMPI PUSH0 DUP1 REVERT JUMPDEST PUSH2 0x95A DUP2 PUSH2 0x16F JUMP JUMPDEST PUSH1 0x6 PUSH0 DUP4 PUSH20 0xFFFFFFFFFFFFFFFFFFFFFFFFFFFFFFFFFFFFFFFF AND PUSH20 0xFFFFFFFFFFFFFFFFFFFFFFFFFFFFFFFFFFFFFFFF AND DUP2 MSTORE PUSH1 0x20 ADD SWAP1 DUP2 MSTORE PUSH1 0x20 ADD PUSH0 KECCAK256 DUP2 SWAP1 SSTORE POP PUSH1 0x4 SLOAD PUSH1 0x5 PUSH0 DUP4 PUSH20 0xFFFFFFFFFFFFFFFFFFFFFFFFFFFFFFFFFFFFFFFF AND PUSH20 0xFFFFFFFFFFFFFFFFFFFFFFFFFFFFFFFFFFFFFFFF AND DUP2 MSTORE PUSH1 0x20 ADD SWAP1 DUP2 MSTORE PUSH1 0x20 ADD PUSH0 KECCAK256 DUP2 SWAP1 SSTORE POP TIMESTAMP PUSH1 0x1 SLOAD GT ISZERO PUSH2 0xA01 JUMPI PUSH0 SLOAD DUP3 PUSH2 0x9F6 SWAP2 SWAP1 PUSH2 0xD89 JUMP JUMPDEST PUSH1 0x3 DUP2 SWAP1 SSTORE POP PUSH2 0xA3F JUMP JUMPDEST PUSH0 TIMESTAMP PUSH1 0x1 SLOAD PUSH2 0xA10 SWAP2 SWAP1 PUSH2 0xCE8 JUMP JUMPDEST PUSH1 0x3 SLOAD PUSH2 0xA1D SWAP2 SWAP1 PUSH2 0xD1B JUMP JUMPDEST SWAP1 POP PUSH0 SLOAD DUP4 DUP3 PUSH2 0xA2D SWAP2 SWAP1 PUSH2 0xDB9 JUMP JUMPDEST PUSH2 0xA37 SWAP2 SWAP1 PUSH2 0xD89 JUMP JUMPDEST PUSH1 0x3 DUP2 SWAP1 SSTORE POP POP JUMPDEST PUSH0 PUSH1 0x3 SLOAD SUB PUSH2 0xA4C JUMPI PUSH0 DUP1 REVERT JUMPDEST PUSH32 0x0 PUSH20 0xFFFFFFFFFFFFFFFFFFFFFFFFFFFFFFFFFFFFFFFF AND PUSH4 0x70A08231 ADDRESS PUSH1 0x40 MLOAD DUP3 PUSH4 0xFFFFFFFF AND PUSH1 0xE0 SHL DUP2 MSTORE PUSH1 0x4 ADD PUSH2 0xAA5 SWAP2 SWAP1 PUSH2 0xEB7 JUMP JUMPDEST PUSH1 0x20 PUSH1 0x40 MLOAD DUP1 DUP4 SUB DUP2 DUP7 GAS STATICCALL ISZERO DUP1 ISZERO PUSH2 0xAC0 JUMPI RETURNDATASIZE PUSH0 DUP1 RETURNDATACOPY RETURNDATASIZE PUSH0 REVERT JUMPDEST POP POP POP POP PUSH1 0x40 MLOAD RETURNDATASIZE PUSH1 0x1F NOT PUSH1 0x1F DUP3 ADD AND DUP3 ADD DUP1 PUSH1 0x40 MSTORE POP DUP2 ADD SWAP1 PUSH2 0xAE4 SWAP2 SWAP1 PUSH2 0xEE4 JUMP JUMPDEST PUSH0 SLOAD PUSH1 0x3 SLOAD PUSH2 0xAF3 SWAP2 SWAP1 PUSH2 0xD1B JUMP JUMPDEST GT ISZERO PUSH2 0xAFD JUMPI PUSH0 DUP1 REVERT JUMPDEST PUSH0 SLOAD TIMESTAMP ADD PUSH1 0x1 DUP2 SWAP1 SSTORE POP TIMESTAMP PUSH1 0x2 DUP2 SWAP1 SSTORE POP POP POP JUMP JUMPDEST PUSH32 0x0 PUSH20 0xFFFFFFFFFFFFFFFFFFFFFFFFFFFFFFFFFFFFFFFF AND CALLER PUSH20 0xFFFFFFFFFFFFFFFFFFFFFFFFFFFFFFFFFFFFFFFF AND EQ PUSH2 0xB69 JUMPI PUSH0 DUP1 REVERT JUMPDEST TIMESTAMP PUSH1 0x1 SLOAD GT ISZERO PUSH2 0xB77 JUMPI PUSH0 DUP1 REVERT JUMPDEST DUP1 PUSH0 DUP2 SWAP1 SSTORE POP POP JUMP JUMPDEST PUSH0 PUSH2 0xB8D TIMESTAMP PUSH1 0x1 SLOAD PUSH2 0xB92 JUMP JUMPDEST SWAP1 POP SWAP1 JUMP JUMPDEST PUSH0 DUP2 DUP4 GT PUSH2 0xBA2 JUMPI DUP3 SWAP1 POP PUSH2 0xBA6 JUMP JUMPDEST DUP2 SWAP1 POP JUMPDEST SWAP3 SWAP2 POP POP JUMP JUMPDEST PUSH0 DUP1 REVERT JUMPDEST PUSH0 PUSH20 0xFFFFFFFFFFFFFFFFFFFFFFFFFFFFFFFFFFFFFFFF DUP3 AND SWAP1 POP SWAP2 SWAP1 POP JUMP JUMPDEST PUSH0 PUSH2 0xBD9 DUP3 PUSH2 0xBB0 JUMP JUMPDEST SWAP1 POP SWAP2 SWAP1 POP JUMP JUMPDEST PUSH2 0xBE9 DUP2 PUSH2 0xBCF JUMP JUMPDEST DUP2 EQ PUSH2 0xBF3 JUMPI PUSH0 DUP1 REVERT JUMPDEST POP JUMP JUMPDEST PUSH0 DUP2 CALLDATALOAD SWAP1 POP PUSH2 0xC04 DUP2 PUSH2 0xBE0 JUMP JUMPDEST SWAP3 SWAP2 POP POP JUMP JUMPDEST PUSH0 PUSH1 0x20 DUP3 DUP5 SUB SLT ISZERO PUSH2 0xC1F JUMPI PUSH2 0xC1E PUSH2 0xBAC JUMP JUMPDEST JUMPDEST PUSH0 PUSH2 0xC2C DUP5 DUP3 DUP6 ADD PUSH2 0xBF6 JUMP JUMPDEST SWAP2 POP POP SWAP3 SWAP2 POP POP JUMP JUMPDEST PUSH0 DUP2 SWAP1 POP SWAP2 SWAP1 POP JUMP JUMPDEST PUSH2 0xC47 DUP2 PUSH2 0xC35 JUMP JUMPDEST DUP3 MSTORE POP POP JUMP JUMPDEST PUSH0 PUSH1 0x20 DUP3 ADD SWAP1 POP PUSH2 0xC60 PUSH0 DUP4 ADD DUP5 PUSH2 0xC3E JUMP JUMPDEST SWAP3 SWAP2 POP POP JUMP JUMPDEST PUSH2 0xC6F DUP2 PUSH2 0xC35 JUMP JUMPDEST DUP2 EQ PUSH2 0xC79 JUMPI PUSH0 DUP1 REVERT JUMPDEST POP JUMP JUMPDEST PUSH0 DUP2 CALLDATALOAD SWAP1 POP PUSH2 0xC8A DUP2 PUSH2 0xC66 JUMP JUMPDEST SWAP3 SWAP2 POP POP JUMP JUMPDEST PUSH0 PUSH1 0x20 DUP3 DUP5 SUB SLT ISZERO PUSH2 0xCA5 JUMPI PUSH2 0xCA4 PUSH2 0xBAC JUMP JUMPDEST JUMPDEST PUSH0 PUSH2 0xCB2 DUP5 DUP3 DUP6 ADD PUSH2 0xC7C JUMP JUMPDEST SWAP2 POP POP SWAP3 SWAP2 POP POP JUMP JUMPDEST PUSH32 0x4E487B7100000000000000000000000000000000000000000000000000000000 PUSH0 MSTORE PUSH1 0x11 PUSH1 0x4 MSTORE PUSH1 0x24 PUSH0 REVERT JUMPDEST PUSH0 PUSH2 0xCF2 DUP3 PUSH2 0xC35 JUMP JUMPDEST SWAP2 POP PUSH2 0xCFD DUP4 PUSH2 0xC35 JUMP JUMPDEST SWAP3 POP DUP3 DUP3 SUB SWAP1 POP DUP2 DUP2 GT ISZERO PUSH2 0xD15 JUMPI PUSH2 0xD14 PUSH2 0xCBB JUMP JUMPDEST JUMPDEST SWAP3 SWAP2 POP POP JUMP JUMPDEST PUSH0 PUSH2 0xD25 DUP3 PUSH2 0xC35 JUMP JUMPDEST SWAP2 POP PUSH2 0xD30 DUP4 PUSH2 0xC35 JUMP JUMPDEST SWAP3 POP DUP3 DUP3 MUL PUSH2 0xD3E DUP2 PUSH2 0xC35 JUMP JUMPDEST SWAP2 POP DUP3 DUP3 DIV DUP5 EQ DUP4 ISZERO OR PUSH2 0xD55 JUMPI PUSH2 0xD54 PUSH2 0xCBB JUMP JUMPDEST JUMPDEST POP SWAP3 SWAP2 POP POP JUMP JUMPDEST PUSH32 0x4E487B7100000000000000000000000000000000000000000000000000000000 PUSH0 MSTORE PUSH1 0x12 PUSH1 0x4 MSTORE PUSH1 0x24 PUSH0 REVERT JUMPDEST PUSH0 PUSH2 0xD93 DUP3 PUSH2 0xC35 JUMP JUMPDEST SWAP2 POP PUSH2 0xD9E DUP4 PUSH2 0xC35 JUMP JUMPDEST SWAP3 POP DUP3 PUSH2 0xDAE JUMPI PUSH2 0xDAD PUSH2 0xD5C JUMP JUMPDEST JUMPDEST DUP3 DUP3 DIV SWAP1 POP SWAP3 SWAP2 POP POP JUMP JUMPDEST PUSH0 PUSH2 0xDC3 DUP3 PUSH2 0xC35 JUMP JUMPDEST SWAP2 POP PUSH2 0xDCE DUP4 PUSH2 0xC35 JUMP JUMPDEST SWAP3 POP DUP3 DUP3 ADD SWAP1 POP DUP1 DUP3 GT ISZERO PUSH2 0xDE6 JUMPI PUSH2 0xDE5 PUSH2 0xCBB JUMP JUMPDEST JUMPDEST SWAP3 SWAP2 POP POP JUMP JUMPDEST PUSH2 0xDF5 DUP2 PUSH2 0xBCF JUMP JUMPDEST DUP3 MSTORE POP POP JUMP JUMPDEST PUSH0 PUSH1 0x40 DUP3 ADD SWAP1 POP PUSH2 0xE0E PUSH0 DUP4 ADD DUP6 PUSH2 0xDEC JUMP JUMPDEST PUSH2 0xE1B PUSH1 0x20 DUP4 ADD DUP5 PUSH2 0xC3E JUMP JUMPDEST SWAP4 SWAP3 POP POP POP JUMP JUMPDEST PUSH0 DUP2 ISZERO ISZERO SWAP1 POP SWAP2 SWAP1 POP JUMP JUMPDEST PUSH2 0xE36 DUP2 PUSH2 0xE22 JUMP JUMPDEST DUP2 EQ PUSH2 0xE40 JUMPI PUSH0 DUP1 REVERT JUMPDEST POP JUMP JUMPDEST PUSH0 DUP2 MLOAD SWAP1 POP PUSH2 0xE51 DUP2 PUSH2 0xE2D JUMP JUMPDEST SWAP3 SWAP2 POP POP JUMP JUMPDEST PUSH0 PUSH1 0x20 DUP3 DUP5 SUB SLT ISZERO PUSH2 0xE6C JUMPI PUSH2 0xE6B PUSH2 0xBAC JUMP JUMPDEST JUMPDEST PUSH0 PUSH2 0xE79 DUP5 DUP3 DUP6 ADD PUSH2 0xE43 JUMP JUMPDEST SWAP2 POP POP SWAP3 SWAP2 POP POP JUMP JUMPDEST PUSH0 PUSH1 0x60 DUP3 ADD SWAP1 POP PUSH2 0xE95 PUSH0 DUP4 ADD DUP7 PUSH2 0xDEC JUMP JUMPDEST PUSH2 0xEA2 PUSH1 0x20 DUP4 ADD DUP6 PUSH2 0xDEC JUMP JUMPDEST PUSH2 0xEAF PUSH1 0x40 DUP4 ADD DUP5 PUSH2 0xC3E JUMP JUMPDEST SWAP5 SWAP4 POP POP POP POP JUMP JUMPDEST PUSH0 PUSH1 0x20 DUP3 ADD SWAP1 POP PUSH2 0xECA PUSH0 DUP4 ADD DUP5 PUSH2 0xDEC JUMP JUMPDEST SWAP3 SWAP2 POP POP JUMP JUMPDEST PUSH0 DUP2 MLOAD SWAP1 POP PUSH2 0xEDE DUP2 PUSH2 0xC66 JUMP JUMPDEST SWAP3 SWAP2 POP POP JUMP JUMPDEST PUSH0 PUSH1 0x20 DUP3 DUP5 SUB SLT ISZERO PUSH2 0xEF9 JUMPI PUSH2 0xEF8 PUSH2 0xBAC JUMP JUMPDEST JUMPDEST PUSH0 PUSH2 0xF06 DUP5 DUP3 DUP6 ADD PUSH2 0xED0 JUMP JUMPDEST SWAP2 POP POP SWAP3 SWAP2 POP POP JUMP INVALID LOG2 PUSH5 0x6970667358 0x22 SLT KECCAK256 0xB5 PUSH32 0x2940F5B12FD2A0CBBE2BF61729ADC772B0A928D557C94C6BAF8D936D496D6473 PUSH16 0x6C634300081400330000000000000000 "
				},
				"gasEstimates": {
					"creation": {
						"codeDepositCost": "781800",
						"executionCost": "infinite",
						"totalCost": "infinite"
					},
					"external": {
						"earned(address)": "infinite",
						"getReward()": "infinite",
						"lastTimeRewardsApplicable()": "2578",
						"notifyRewrdsAmount(uint256)": "infinite",
						"rewardperToken()": "infinite",
						"setRewardsDuration(uint256)": "infinite",
						"stake(uint256)": "infinite",
						"withdraw(uint256)": "infinite"
					},
					"internal": {
						"min(uint256,uint256)": "63"
					}
				},
				"methodIdentifiers": {
					"earned(address)": "008cc262",
					"getReward()": "3d18b912",
					"lastTimeRewardsApplicable()": "edf26bc7",
					"notifyRewrdsAmount(uint256)": "cb7032ab",
					"rewardperToken()": "baf36830",
					"setRewardsDuration(uint256)": "cc1a378f",
					"stake(uint256)": "a694fc3a",
					"withdraw(uint256)": "2e1a7d4d"
				}
			},
			"storageLayout": {
				"storage": [
					{
						"astId": 90,
						"contract": "Staking.sol:StakingRewards",
						"label": "s_duration",
						"offset": 0,
						"slot": "0",
						"type": "t_uint256"
					},
					{
						"astId": 92,
						"contract": "Staking.sol:StakingRewards",
						"label": "s_finshedAt",
						"offset": 0,
						"slot": "1",
						"type": "t_uint256"
					},
					{
						"astId": 94,
						"contract": "Staking.sol:StakingRewards",
						"label": "s_updatedAt",
						"offset": 0,
						"slot": "2",
						"type": "t_uint256"
					},
					{
						"astId": 96,
						"contract": "Staking.sol:StakingRewards",
						"label": "s_rewardRate",
						"offset": 0,
						"slot": "3",
						"type": "t_uint256"
					},
					{
						"astId": 98,
						"contract": "Staking.sol:StakingRewards",
						"label": "s_RewardperTokenStored",
						"offset": 0,
						"slot": "4",
						"type": "t_uint256"
					},
					{
						"astId": 102,
						"contract": "Staking.sol:StakingRewards",
						"label": "UserRewardPerToken",
						"offset": 0,
						"slot": "5",
						"type": "t_mapping(t_address,t_uint256)"
					},
					{
						"astId": 106,
						"contract": "Staking.sol:StakingRewards",
						"label": "rewards",
						"offset": 0,
						"slot": "6",
						"type": "t_mapping(t_address,t_uint256)"
					},
					{
						"astId": 108,
						"contract": "Staking.sol:StakingRewards",
						"label": "totalSupply",
						"offset": 0,
						"slot": "7",
						"type": "t_uint256"
					},
					{
						"astId": 112,
						"contract": "Staking.sol:StakingRewards",
						"label": "balanceOf",
						"offset": 0,
						"slot": "8",
						"type": "t_mapping(t_address,t_uint256)"
					}
				],
				"types": {
					"t_address": {
						"encoding": "inplace",
						"label": "address",
						"numberOfBytes": "20"
					},
					"t_mapping(t_address,t_uint256)": {
						"encoding": "mapping",
						"key": "t_address",
						"label": "mapping(address => uint256)",
						"numberOfBytes": "32",
						"value": "t_uint256"
					},
					"t_uint256": {
						"encoding": "inplace",
						"label": "uint256",
						"numberOfBytes": "32"
					}
				}
			},
			"userdoc": {
				"kind": "user",
				"methods": {},
				"version": 1
			}
		}
	}
}