{
	"data": {
		"bytecode": {
			"linkReferences": {},
			"object": "60e060405234801562000010575f80fd5b50604051620011093803806200110983398181016040528101906200003691906200013f565b3373ffffffffffffffffffffffffffffffffffffffff1660c08173ffffffffffffffffffffffffffffffffffffffff16815250508173ffffffffffffffffffffffffffffffffffffffff1660808173ffffffffffffffffffffffffffffffffffffffff16815250508073ffffffffffffffffffffffffffffffffffffffff1660a08173ffffffffffffffffffffffffffffffffffffffff1681525050505062000184565b5f80fd5b5f73ffffffffffffffffffffffffffffffffffffffff82169050919050565b5f6200010982620000de565b9050919050565b6200011b81620000fd565b811462000126575f80fd5b50565b5f81519050620001398162000110565b92915050565b5f8060408385031215620001585762000157620000da565b5b5f620001678582860162000129565b92505060206200017a8582860162000129565b9150509250929050565b60805160a05160c051610f45620001c45f395f81816108a80152610b1401525f81816105ba0152610a4e01525f81816103ae01526107480152610f455ff3fe608060405234801561000f575f80fd5b5060043610610085575f3560e01c8063baf3683011610059578063baf36830146100fb578063cb7032ab14610119578063cc1a378f14610135578063edf26bc71461015157610085565b80628cc262146100895780632e1a7d4d146100b95780633d18b912146100d5578063a694fc3a146100df575b5f80fd5b6100a3600480360381019061009e9190610c0a565b61016f565b6040516100b09190610c4d565b60405180910390f35b6100d360048036038101906100ce9190610c90565b61026a565b005b6100dd61044c565b005b6100f960048036038101906100f49190610c90565b610659565b005b61010361083d565b6040516101109190610c4d565b60405180910390f35b610133600480360381019061012e9190610c90565b6108a6565b005b61014f600480360381019061014a9190610c90565b610b12565b005b610159610b80565b6040516101669190610c4d565b60405180910390f35b5f60065f8373ffffffffffffffffffffffffffffffffffffffff1673ffffffffffffffffffffffffffffffffffffffff1681526020019081526020015f2054670de0b6b3a764000060055f8573ffffffffffffffffffffffffffffffffffffffff1673ffffffffffffffffffffffffffffffffffffffff1681526020019081526020015f20546101fd61083d565b6102079190610ce8565b60085f8673ffffffffffffffffffffffffffffffffffffffff1673ffffffffffffffffffffffffffffffffffffffff1681526020019081526020015f205461024f9190610d1b565b6102599190610d89565b6102639190610db9565b9050919050565b3361027361083d565b600481905550610281610b80565b6002819055505f73ffffffffffffffffffffffffffffffffffffffff168173ffffffffffffffffffffffffffffffffffffffff16036102be575f80fd5b6102c78161016f565b60065f8373ffffffffffffffffffffffffffffffffffffffff1673ffffffffffffffffffffffffffffffffffffffff1681526020019081526020015f208190555060045460055f8373ffffffffffffffffffffffffffffffffffffffff1673ffffffffffffffffffffffffffffffffffffffff1681526020019081526020015f20819055505f8211610357575f80fd5b8160085f3373ffffffffffffffffffffffffffffffffffffffff1673ffffffffffffffffffffffffffffffffffffffff1681526020019081526020015f205f828254039250508190555081600754036007819055507f000000000000000000000000000000000000000000000000000000000000000073ffffffffffffffffffffffffffffffffffffffff1663a9059cbb33846040518363ffffffff1660e01b8152600401610407929190610dfb565b6020604051808303815f875af1158015610423573d5f803e3d5ffd5b505050506040513d601f19601f820116820180604052508101906104479190610e57565b505050565b3361045561083d565b600481905550610463610b80565b6002819055505f73ffffffffffffffffffffffffffffffffffffffff168173ffffffffffffffffffffffffffffffffffffffff16036104a0575f80fd5b6104a98161016f565b60065f8373ffffffffffffffffffffffffffffffffffffffff1673ffffffffffffffffffffffffffffffffffffffff1681526020019081526020015f208190555060045460055f8373ffffffffffffffffffffffffffffffffffffffff1673ffffffffffffffffffffffffffffffffffffffff1681526020019081526020015f20819055505f60065f3373ffffffffffffffffffffffffffffffffffffffff1673ffffffffffffffffffffffffffffffffffffffff1681526020019081526020015f205490505f8114610655575f60065f3373ffffffffffffffffffffffffffffffffffffffff1673ffffffffffffffffffffffffffffffffffffffff1681526020019081526020015f20819055507f000000000000000000000000000000000000000000000000000000000000000073ffffffffffffffffffffffffffffffffffffffff1663a9059cbb33836040518363ffffffff1660e01b8152600401610613929190610dfb565b6020604051808303815f875af115801561062f573d5f803e3d5ffd5b505050506040513d601f19601f820116820180604052508101906106539190610e57565b505b5050565b3361066261083d565b600481905550610670610b80565b6002819055505f73ffffffffffffffffffffffffffffffffffffffff168173ffffffffffffffffffffffffffffffffffffffff16036106ad575f80fd5b6106b68161016f565b60065f8373ffffffffffffffffffffffffffffffffffffffff1673ffffffffffffffffffffffffffffffffffffffff1681526020019081526020015f208190555060045460055f8373ffffffffffffffffffffffffffffffffffffffff1673ffffffffffffffffffffffffffffffffffffffff1681526020019081526020015f20819055505f8211610746575f80fd5b7f000000000000000000000000000000000000000000000000000000000000000073ffffffffffffffffffffffffffffffffffffffff166323b872dd3330856040518463ffffffff1660e01b81526004016107a393929190610e82565b6020604051808303815f875af11580156107bf573d5f803e3d5ffd5b505050506040513d601f19601f820116820180604052508101906107e39190610e57565b508160085f3373ffffffffffffffffffffffffffffffffffffffff1673ffffffffffffffffffffffffffffffffffffffff1681526020019081526020015f205f828254019250508190555081600754016007819055505050565b5f80600754036108515760045490506108a3565b600754670de0b6b3a7640000600254610868610b80565b6108729190610ce8565b60035461087f9190610d1b565b6108899190610d1b565b6004546108969190610d1b565b6108a09190610d89565b90505b90565b7f000000000000000000000000000000000000000000000000000000000000000073ffffffffffffffffffffffffffffffffffffffff163373ffffffffffffffffffffffffffffffffffffffff16146108fd575f80fd5b5f61090661083d565b600481905550610914610b80565b6002819055505f73ffffffffffffffffffffffffffffffffffffffff168173ffffffffffffffffffffffffffffffffffffffff1603610951575f80fd5b61095a8161016f565b60065f8373ffffffffffffffffffffffffffffffffffffffff1673ffffffffffffffffffffffffffffffffffffffff1681526020019081526020015f208190555060045460055f8373ffffffffffffffffffffffffffffffffffffffff1673ffffffffffffffffffffffffffffffffffffffff1681526020019081526020015f2081905550426001541115610a01575f54826109f69190610d89565b600381905550610a3f565b5f42600154610a109190610ce8565b600354610a1d9190610d1b565b90505f548382610a2d9190610db9565b610a379190610d89565b600381905550505b5f60035403610a4c575f80fd5b7f000000000000000000000000000000000000000000000000000000000000000073ffffffffffffffffffffffffffffffffffffffff166370a08231306040518263ffffffff1660e01b8152600401610aa59190610eb7565b602060405180830381865afa158015610ac0573d5f803e3d5ffd5b505050506040513d601f19601f82011682018060405250810190610ae49190610ee4565b5f54600354610af39190610d1b565b1115610afd575f80fd5b5f544201600181905550426002819055505050565b7f000000000000000000000000000000000000000000000000000000000000000073ffffffffffffffffffffffffffffffffffffffff163373ffffffffffffffffffffffffffffffffffffffff1614610b69575f80fd5b426001541115610b77575f80fd5b805f8190555050565b5f610b8d42600154610b92565b905090565b5f818311610ba257829050610ba6565b8190505b92915050565b5f80fd5b5f73ffffffffffffffffffffffffffffffffffffffff82169050919050565b5f610bd982610bb0565b9050919050565b610be981610bcf565b8114610bf3575f80fd5b50565b5f81359050610c0481610be0565b92915050565b5f60208284031215610c1f57610c1e610bac565b5b5f610c2c84828501610bf6565b91505092915050565b5f819050919050565b610c4781610c35565b82525050565b5f602082019050610c605f830184610c3e565b92915050565b610c6f81610c35565b8114610c79575f80fd5b50565b5f81359050610c8a81610c66565b92915050565b5f60208284031215610ca557610ca4610bac565b5b5f610cb284828501610c7c565b91505092915050565b7f4e487b71000000000000000000000000000000000000000000000000000000005f52601160045260245ffd5b5f610cf282610c35565b9150610cfd83610c35565b9250828203905081811115610d1557610d14610cbb565b5b92915050565b5f610d2582610c35565b9150610d3083610c35565b9250828202610d3e81610c35565b91508282048414831517610d5557610d54610cbb565b5b5092915050565b7f4e487b71000000000000000000000000000000000000000000000000000000005f52601260045260245ffd5b5f610d9382610c35565b9150610d9e83610c35565b925082610dae57610dad610d5c565b5b828204905092915050565b5f610dc382610c35565b9150610dce83610c35565b9250828201905080821115610de657610de5610cbb565b5b92915050565b610df581610bcf565b82525050565b5f604082019050610e0e5f830185610dec565b610e1b6020830184610c3e565b9392505050565b5f8115159050919050565b610e3681610e22565b8114610e40575f80fd5b50565b5f81519050610e5181610e2d565b92915050565b5f60208284031215610e6c57610e6b610bac565b5b5f610e7984828501610e43565b91505092915050565b5f606082019050610e955f830186610dec565b610ea26020830185610dec565b610eaf6040830184610c3e565b949350505050565b5f602082019050610eca5f830184610dec565b92915050565b5f81519050610ede81610c66565b92915050565b5f60208284031215610ef957610ef8610bac565b5b5f610f0684828501610ed0565b9150509291505056fea2646970667358221220b57f2940f5b12fd2a0cbbe2bf61729adc772b0a928d557c94c6baf8d936d496d64736f6c63430008140033",
			"opcodes": "PUSH1 0xE0 PUSH1 0x40 MSTORE CALLVALUE DUP1 ISZERO PUSH3 0x10 JUMPI PUSH0 DUP1 REVERT JUMPDEST POP PUSH1 0x40 MLOAD PUSH3 0x1109 CODESIZE SUB DUP1 PUSH3 0x1109 DUP4 CODECOPY DUP2 DUP2 ADD PUSH1 0x40 MSTORE DUP2 ADD SWAP1 PUSH3 0x36 SWAP2 SWAP1 PUSH3 0x13F JUMP JUMPDEST CALLER PUSH20 0xFFFFFFFFFFFFFFFFFFFFFFFFFFFFFFFFFFFFFFFF AND PUSH1 0xC0 DUP2 PUSH20 0xFFFFFFFFFFFFFFFFFFFFFFFFFFFFFFFFFFFFFFFF AND DUP2 MSTORE POP POP DUP2 PUSH20 0xFFFFFFFFFFFFFFFFFFFFFFFFFFFFFFFFFFFFFFFF AND PUSH1 0x80 DUP2 PUSH20 0xFFFFFFFFFFFFFFFFFFFFFFFFFFFFFFFFFFFFFFFF AND DUP2 MSTORE POP POP DUP1 PUSH20 0xFFFFFFFFFFFFFFFFFFFFFFFFFFFFFFFFFFFFFFFF AND PUSH1 0xA0 DUP2 PUSH20 0xFFFFFFFFFFFFFFFFFFFFFFFFFFFFFFFFFFFFFFFF AND DUP2 MSTORE POP POP POP POP PUSH3 0x184 JUMP JUMPDEST PUSH0 DUP1 REVERT JUMPDEST PUSH0 PUSH20 0xFFFFFFFFFFFFFFFFFFFFFFFFFFFFFFFFFFFFFFFF DUP3 AND SWAP1 POP SWAP2 SWAP1 POP JUMP JUMPDEST PUSH0 PUSH3 0x109 DUP3 PUSH3 0xDE JUMP JUMPDEST SWAP1 POP SWAP2 SWAP1 POP JUMP JUMPDEST PUSH3 0x11B DUP2 PUSH3 0xFD JUMP JUMPDEST DUP2 EQ PUSH3 0x126 JUMPI PUSH0 DUP1 REVERT JUMPDEST POP JUMP JUMPDEST PUSH0 DUP2 MLOAD SWAP1 POP PUSH3 0x139 DUP2 PUSH3 0x110 JUMP JUMPDEST SWAP3 SWAP2 POP POP JUMP JUMPDEST PUSH0 DUP1 PUSH1 0x40 DUP4 DUP6 SUB SLT ISZERO PUSH3 0x158 JUMPI PUSH3 0x157 PUSH3 0xDA JUMP JUMPDEST JUMPDEST PUSH0 PUSH3 0x167 DUP6 DUP3 DUP7 ADD PUSH3 0x129 JUMP JUMPDEST SWAP3 POP POP PUSH1 0x20 PUSH3 0x17A DUP6 DUP3 DUP7 ADD PUSH3 0x129 JUMP JUMPDEST SWAP2 POP POP SWAP3 POP SWAP3 SWAP1 POP JUMP JUMPDEST PUSH1 0x80 MLOAD PUSH1 0xA0 MLOAD PUSH1 0xC0 MLOAD PUSH2 0xF45 PUSH3 0x1C4 PUSH0 CODECOPY PUSH0 DUP2 DUP2 PUSH2 0x8A8 ADD MSTORE PUSH2 0xB14 ADD MSTORE PUSH0 DUP2 DUP2 PUSH2 0x5BA ADD MSTORE PUSH2 0xA4E ADD MSTORE PUSH0 DUP2 DUP2 PUSH2 0x3AE ADD MSTORE PUSH2 0x748 ADD MSTORE PUSH2 0xF45 PUSH0 RETURN INVALID PUSH1 0x80 PUSH1 0x40 MSTORE CALLVALUE DUP1 ISZERO PUSH2 0xF JUMPI PUSH0 DUP1 REVERT JUMPDEST POP PUSH1 0x4 CALLDATASIZE LT PUSH2 0x85 JUMPI PUSH0 CALLDATALOAD PUSH1 0xE0 SHR DUP1 PUSH4 0xBAF36830 GT PUSH2 0x59 JUMPI DUP1 PUSH4 0xBAF36830 EQ PUSH2 0xFB JUMPI DUP1 PUSH4 0xCB7032AB EQ PUSH2 0x119 JUMPI DUP1 PUSH4 0xCC1A378F EQ PUSH2 0x135 JUMPI DUP1 PUSH4 0xEDF26BC7 EQ PUSH2 0x151 JUMPI PUSH2 0x85 JUMP JUMPDEST DUP1 PUSH3 0x8CC262 EQ PUSH2 0x89 JUMPI DUP1 PUSH4 0x2E1A7D4D EQ PUSH2 0xB9 JUMPI DUP1 PUSH4 0x3D18B912 EQ PUSH2 0xD5 JUMPI DUP1 PUSH4 0xA694FC3A EQ PUSH2 0xDF JUMPI JUMPDEST PUSH0 DUP1 REVERT JUMPDEST PUSH2 0xA3 PUSH1 0x4 DUP1 CALLDATASIZE SUB DUP2 ADD SWAP1 PUSH2 0x9E SWAP2 SWAP1 PUSH2 0xC0A JUMP JUMPDEST PUSH2 0x16F JUMP JUMPDEST PUSH1 0x40 MLOAD PUSH2 0xB0 SWAP2 SWAP1 PUSH2 0xC4D JUMP JUMPDEST PUSH1 0x40 MLOAD DUP1 SWAP2 SUB SWAP1 RETURN JUMPDEST PUSH2 0xD3 PUSH1 0x4 DUP1 CALLDATASIZE SUB DUP2 ADD SWAP1 PUSH2 0xCE SWAP2 SWAP1 PUSH2 0xC90 JUMP JUMPDEST PUSH2 0x26A JUMP JUMPDEST STOP JUMPDEST PUSH2 0xDD PUSH2 0x44C JUMP JUMPDEST STOP JUMPDEST PUSH2 0xF9 PUSH1 0x4 DUP1 CALLDATASIZE SUB DUP2 ADD SWAP1 PUSH2 0xF4 SWAP2 SWAP1 PUSH2 0xC90 JUMP JUMPDEST PUSH2 0x659 JUMP JUMPDEST STOP JUMPDEST PUSH2 0x103 PUSH2 0x83D JUMP JUMPDEST PUSH1 0x40 MLOAD PUSH2 0x110 SWAP2 SWAP1 PUSH2 0xC4D JUMP JUMPDEST PUSH1 0x40 MLOAD DUP1 SWAP2 SUB SWAP1 RETURN JUMPDEST PUSH2 0x133 PUSH1 0x4 DUP1 CALLDATASIZE SUB DUP2 ADD SWAP1 PUSH2 0x12E SWAP2 SWAP1 PUSH2 0xC90 JUMP JUMPDEST PUSH2 0x8A6 JUMP JUMPDEST STOP JUMPDEST PUSH2 0x14F PUSH1 0x4 DUP1 CALLDATASIZE SUB DUP2 ADD SWAP1 PUSH2 0x14A SWAP2 SWAP1 PUSH2 0xC90 JUMP JUMPDEST PUSH2 0xB12 JUMP JUMPDEST STOP JUMPDEST PUSH2 0x159 PUSH2 0xB80 JUMP JUMPDEST PUSH1 0x40 MLOAD PUSH2 0x166 SWAP2 SWAP1 PUSH2 0xC4D JUMP JUMPDEST PUSH1 0x40 MLOAD DUP1 SWAP2 SUB SWAP1 RETURN JUMPDEST PUSH0 PUSH1 0x6 PUSH0 DUP4 PUSH20 0xFFFFFFFFFFFFFFFFFFFFFFFFFFFFFFFFFFFFFFFF AND PUSH20 0xFFFFFFFFFFFFFFFFFFFFFFFFFFFFFFFFFFFFFFFF AND DUP2 MSTORE PUSH1 0x20 ADD SWAP1 DUP2 MSTORE PUSH1 0x20 ADD PUSH0 KECCAK256 SLOAD PUSH8 0xDE0B6B3A7640000 PUSH1 0x5 PUSH0 DUP6 PUSH20 0xFFFFFFFFFFFFFFFFFFFFFFFFFFFFFFFFFFFFFFFF AND PUSH20 0xFFFFFFFFFFFFFFFFFFFFFFFFFFFFFFFFFFFFFFFF AND DUP2 MSTORE PUSH1 0x20 ADD SWAP1 DUP2 MSTORE PUSH1 0x20 ADD PUSH0 KECCAK256 SLOAD PUSH2 0x1FD PUSH2 0x83D JUMP JUMPDEST PUSH2 0x207 SWAP2 SWAP1 PUSH2 0xCE8 JUMP JUMPDEST PUSH1 0x8 PUSH0 DUP7 PUSH20 0xFFFFFFFFFFFFFFFFFFFFFFFFFFFFFFFFFFFFFFFF AND PUSH20 0xFFFFFFFFFFFFFFFFFFFFFFFFFFFFFFFFFFFFFFFF AND DUP2 MSTORE PUSH1 0x20 ADD SWAP1 DUP2 MSTORE PUSH1 0x20 ADD PUSH0 KECCAK256 SLOAD PUSH2 0x24F SWAP2 SWAP1 PUSH2 0xD1B JUMP JUMPDEST PUSH2 0x259 SWAP2 SWAP1 PUSH2 0xD89 JUMP JUMPDEST PUSH2 0x263 SWAP2 SWAP1 PUSH2 0xDB9 JUMP JUMPDEST SWAP1 POP SWAP2 SWAP1 POP JUMP JUMPDEST CALLER PUSH2 0x273 PUSH2 0x83D JUMP JUMPDEST PUSH1 0x4 DUP2 SWAP1 SSTORE POP PUSH2 0x281 PUSH2 0xB80 JUMP JUMPDEST PUSH1 0x2 DUP2 SWAP1 SSTORE POP PUSH0 PUSH20 0xFFFFFFFFFFFFFFFFFFFFFFFFFFFFFFFFFFFFFFFF AND DUP2 PUSH20 0xFFFFFFFFFFFFFFFFFFFFFFFFFFFFFFFFFFFFFFFF AND SUB PUSH2 0x2BE JUMPI PUSH0 DUP1 REVERT JUMPDEST PUSH2 0x2C7 DUP2 PUSH2 0x16F JUMP JUMPDEST PUSH1 0x6 PUSH0 DUP4 PUSH20 0xFFFFFFFFFFFFFFFFFFFFFFFFFFFFFFFFFFFFFFFF AND PUSH20 0xFFFFFFFFFFFFFFFFFFFFFFFFFFFFFFFFFFFFFFFF AND DUP2 MSTORE PUSH1 0x20 ADD SWAP1 DUP2 MSTORE PUSH1 0x20 ADD PUSH0 KECCAK256 DUP2 SWAP1 SSTORE POP PUSH1 0x4 SLOAD PUSH1 0x5 PUSH0 DUP4 PUSH20 0xFFFFFFFFFFFFFFFFFFFFFFFFFFFFFFFFFFFFFFFF AND PUSH20 0xFFFFFFFFFFFFFFFFFFFFFFFFFFFFFFFFFFFFFFFF AND DUP2 MSTORE PUSH1 0x20 ADD SWAP1 DUP2 MSTORE PUSH1 0x20 ADD PUSH0 KECCAK256 DUP2 SWAP1 SSTORE POP PUSH0 DUP3 GT PUSH2 0x357 JUMPI PUSH0 DUP1 REVERT JUMPDEST DUP2 PUSH1 0x8 PUSH0 CALLER PUSH20 0xFFFFFFFFFFFFFFFFFFFFFFFFFFFFFFFFFFFFFFFF AND PUSH20 0xFFFFFFFFFFFFFFFFFFFFFFFFFFFFFFFFFFFFFFFF AND DUP2 MSTORE PUSH1 0x20 ADD SWAP1 DUP2 MSTORE PUSH1 0x20 ADD PUSH0 KECCAK256 PUSH0 DUP3 DUP3 SLOAD SUB SWAP3 POP POP DUP2 SWAP1 SSTORE POP DUP2 PUSH1 0x7 SLOAD SUB PUSH1 0x7 DUP2 SWAP1 SSTORE POP PUSH32 0x0 PUSH20 0xFFFFFFFFFFFFFFFFFFFFFFFFFFFFFFFFFFFFFFFF AND PUSH4 0xA9059CBB CALLER DUP5 PUSH1 0x40 MLOAD DUP4 PUSH4 0xFFFFFFFF AND PUSH1 0xE0 SHL DUP2 MSTORE PUSH1 0x4 ADD PUSH2 0x407 SWAP3 SWAP2 SWAP1 PUSH2 0xDFB JUMP JUMPDEST PUSH1 0x20 PUSH1 0x40 MLOAD DUP1 DUP4 SUB DUP2 PUSH0 DUP8 GAS CALL ISZERO DUP1 ISZERO PUSH2 0x423 JUMPI RETURNDATASIZE PUSH0 DUP1 RETURNDATACOPY RETURNDATASIZE PUSH0 REVERT JUMPDEST POP POP POP POP PUSH1 0x40 MLOAD RETURNDATASIZE PUSH1 0x1F NOT PUSH1 0x1F DUP3 ADD AND DUP3 ADD DUP1 PUSH1 0x40 MSTORE POP DUP2 ADD SWAP1 PUSH2 0x447 SWAP2 SWAP1 PUSH2 0xE57 JUMP JUMPDEST POP POP POP JUMP JUMPDEST CALLER PUSH2 0x455 PUSH2 0x83D JUMP JUMPDEST PUSH1 0x4 DUP2 SWAP1 SSTORE POP PUSH2 0x463 PUSH2 0xB80 JUMP JUMPDEST PUSH1 0x2 DUP2 SWAP1 SSTORE POP PUSH0 PUSH20 0xFFFFFFFFFFFFFFFFFFFFFFFFFFFFFFFFFFFFFFFF AND DUP2 PUSH20 0xFFFFFFFFFFFFFFFFFFFFFFFFFFFFFFFFFFFFFFFF AND SUB PUSH2 0x4A0 JUMPI PUSH0 DUP1 REVERT JUMPDEST PUSH2 0x4A9 DUP2 PUSH2 0x16F JUMP JUMPDEST PUSH1 0x6 PUSH0 DUP4 PUSH20 0xFFFFFFFFFFFFFFFFFFFFFFFFFFFFFFFFFFFFFFFF AND PUSH20 0xFFFFFFFFFFFFFFFFFFFFFFFFFFFFFFFFFFFFFFFF AND DUP2 MSTORE PUSH1 0x20 ADD SWAP1 DUP2 MSTORE PUSH1 0x20 ADD PUSH0 KECCAK256 DUP2 SWAP1 SSTORE POP PUSH1 0x4 SLOAD PUSH1 0x5 PUSH0 DUP4 PUSH20 0xFFFFFFFFFFFFFFFFFFFFFFFFFFFFFFFFFFFFFFFF AND PUSH20 0xFFFFFFFFFFFFFFFFFFFFFFFFFFFFFFFFFFFFFFFF AND DUP2 MSTORE PUSH1 0x20 ADD SWAP1 DUP2 MSTORE PUSH1 0x20 ADD PUSH0 KECCAK256 DUP2 SWAP1 SSTORE POP PUSH0 PUSH1 0x6 PUSH0 CALLER PUSH20 0xFFFFFFFFFFFFFFFFFFFFFFFFFFFFFFFFFFFFFFFF AND PUSH20 0xFFFFFFFFFFFFFFFFFFFFFFFFFFFFFFFFFFFFFFFF AND DUP2 MSTORE PUSH1 0x20 ADD SWAP1 DUP2 MSTORE PUSH1 0x20 ADD PUSH0 KECCAK256 SLOAD SWAP1 POP PUSH0 DUP2 EQ PUSH2 0x655 JUMPI PUSH0 PUSH1 0x6 PUSH0 CALLER PUSH20 0xFFFFFFFFFFFFFFFFFFFFFFFFFFFFFFFFFFFFFFFF AND PUSH20 0xFFFFFFFFFFFFFFFFFFFFFFFFFFFFFFFFFFFFFFFF AND DUP2 MSTORE PUSH1 0x20 ADD SWAP1 DUP2 MSTORE PUSH1 0x20 ADD PUSH0 KECCAK256 DUP2 SWAP1 SSTORE POP PUSH32 0x0 PUSH20 0xFFFFFFFFFFFFFFFFFFFFFFFFFFFFFFFFFFFFFFFF AND PUSH4 0xA9059CBB CALLER DUP4 PUSH1 0x40 MLOAD DUP4 PUSH4 0xFFFFFFFF AND PUSH1 0xE0 SHL DUP2 MSTORE PUSH1 0x4 ADD PUSH2 0x613 SWAP3 SWAP2 SWAP1 PUSH2 0xDFB JUMP JUMPDEST PUSH1 0x20 PUSH1 0x40 MLOAD DUP1 DUP4 SUB DUP2 PUSH0 DUP8 GAS CALL ISZERO DUP1 ISZERO PUSH2 0x62F JUMPI RETURNDATASIZE PUSH0 DUP1 RETURNDATACOPY RETURNDATASIZE PUSH0 REVERT JUMPDEST POP POP POP POP PUSH1 0x40 MLOAD RETURNDATASIZE PUSH1 0x1F NOT PUSH1 0x1F DUP3 ADD AND DUP3 ADD DUP1 PUSH1 0x40 MSTORE POP DUP2 ADD SWAP1 PUSH2 0x653 SWAP2 SWAP1 PUSH2 0xE57 JUMP JUMPDEST POP JUMPDEST POP POP JUMP JUMPDEST CALLER PUSH2 0x662 PUSH2 0x83D JUMP JUMPDEST PUSH1 0x4 DUP2 SWAP1 SSTORE POP PUSH2 0x670 PUSH2 0xB80 JUMP JUMPDEST PUSH1 0x2 DUP2 SWAP1 SSTORE POP PUSH0 PUSH20 0xFFFFFFFFFFFFFFFFFFFFFFFFFFFFFFFFFFFFFFFF AND DUP2 PUSH20 0xFFFFFFFFFFFFFFFFFFFFFFFFFFFFFFFFFFFFFFFF AND SUB PUSH2 0x6AD JUMPI PUSH0 DUP1 REVERT JUMPDEST PUSH2 0x6B6 DUP2 PUSH2 0x16F JUMP JUMPDEST PUSH1 0x6 PUSH0 DUP4 PUSH20 0xFFFFFFFFFFFFFFFFFFFFFFFFFFFFFFFFFFFFFFFF AND PUSH20 0xFFFFFFFFFFFFFFFFFFFFFFFFFFFFFFFFFFFFFFFF AND DUP2 MSTORE PUSH1 0x20 ADD SWAP1 DUP2 MSTORE PUSH1 0x20 ADD PUSH0 KECCAK256 DUP2 SWAP1 SSTORE POP PUSH1 0x4 SLOAD PUSH1 0x5 PUSH0 DUP4 PUSH20 0xFFFFFFFFFFFFFFFFFFFFFFFFFFFFFFFFFFFFFFFF AND PUSH20 0xFFFFFFFFFFFFFFFFFFFFFFFFFFFFFFFFFFFFFFFF AND DUP2 MSTORE PUSH1 0x20 ADD SWAP1 DUP2 MSTORE PUSH1 0x20 ADD PUSH0 KECCAK256 DUP2 SWAP1 SSTORE POP PUSH0 DUP3 GT PUSH2 0x746 JUMPI PUSH0 DUP1 REVERT JUMPDEST PUSH32 0x0 PUSH20 0xFFFFFFFFFFFFFFFFFFFFFFFFFFFFFFFFFFFFFFFF AND PUSH4 0x23B872DD CALLER ADDRESS DUP6 PUSH1 0x40 MLOAD DUP5 PUSH4 0xFFFFFFFF AND PUSH1 0xE0 SHL DUP2 MSTORE PUSH1 0x4 ADD PUSH2 0x7A3 SWAP4 SWAP3 SWAP2 SWAP1 PUSH2 0xE82 JUMP JUMPDEST PUSH1 0x20 PUSH1 0x40 MLOAD DUP1 DUP4 SUB DUP2 PUSH0 DUP8 GAS CALL ISZERO DUP1 ISZERO PUSH2 0x7BF JUMPI RETURNDATASIZE PUSH0 DUP1 RETURNDATACOPY RETURNDATASIZE PUSH0 REVERT JUMPDEST POP POP POP POP PUSH1 0x40 MLOAD RETURNDATASIZE PUSH1 0x1F NOT PUSH1 0x1F DUP3 ADD AND DUP3 ADD DUP1 PUSH1 0x40 MSTORE POP DUP2 ADD SWAP1 PUSH2 0x7E3 SWAP2 SWAP1 PUSH2 0xE57 JUMP JUMPDEST POP DUP2 PUSH1 0x8 PUSH0 CALLER PUSH20 0xFFFFFFFFFFFFFFFFFFFFFFFFFFFFFFFFFFFFFFFF AND PUSH20 0xFFFFFFFFFFFFFFFFFFFFFFFFFFFFFFFFFFFFFFFF AND DUP2 MSTORE PUSH1 0x20 ADD SWAP1 DUP2 MSTORE PUSH1 0x20 ADD PUSH0 KECCAK256 PUSH0 DUP3 DUP3 SLOAD ADD SWAP3 POP POP DUP2 SWAP1 SSTORE POP DUP2 PUSH1 0x7 SLOAD ADD PUSH1 0x7 DUP2 SWAP1 SSTORE POP POP POP JUMP JUMPDEST PUSH0 DUP1 PUSH1 0x7 SLOAD SUB PUSH2 0x851 JUMPI PUSH1 0x4 SLOAD SWAP1 POP PUSH2 0x8A3 JUMP JUMPDEST PUSH1 0x7 SLOAD PUSH8 0xDE0B6B3A7640000 PUSH1 0x2 SLOAD PUSH2 0x868 PUSH2 0xB80 JUMP JUMPDEST PUSH2 0x872 SWAP2 SWAP1 PUSH2 0xCE8 JUMP JUMPDEST PUSH1 0x3 SLOAD PUSH2 0x87F SWAP2 SWAP1 PUSH2 0xD1B JUMP JUMPDEST PUSH2 0x889 SWAP2 SWAP1 PUSH2 0xD1B JUMP JUMPDEST PUSH1 0x4 SLOAD PUSH2 0x896 SWAP2 SWAP1 PUSH2 0xD1B JUMP JUMPDEST PUSH2 0x8A0 SWAP2 SWAP1 PUSH2 0xD89 JUMP JUMPDEST SWAP1 POP JUMPDEST SWAP1 JUMP JUMPDEST PUSH32 0x0 PUSH20 0xFFFFFFFFFFFFFFFFFFFFFFFFFFFFFFFFFFFFFFFF AND CALLER PUSH20 0xFFFFFFFFFFFFFFFFFFFFFFFFFFFFFFFFFFFFFFFF AND EQ PUSH2 0x8FD JUMPI PUSH0 DUP1 REVERT JUMPDEST PUSH0 PUSH2 0x906 PUSH2 0x83D JUMP JUMPDEST PUSH1 0x4 DUP2 SWAP1 SSTORE POP PUSH2 0x914 PUSH2 0xB80 JUMP JUMPDEST PUSH1 0x2 DUP2 SWAP1 SSTORE POP PUSH0 PUSH20 0xFFFFFFFFFFFFFFFFFFFFFFFFFFFFFFFFFFFFFFFF AND DUP2 PUSH20 0xFFFFFFFFFFFFFFFFFFFFFFFFFFFFFFFFFFFFFFFF AND SUB PUSH2 0x951 JUMPI PUSH0 DUP1 REVERT JUMPDEST PUSH2 0x95A DUP2 PUSH2 0x16F JUMP JUMPDEST PUSH1 0x6 PUSH0 DUP4 PUSH20 0xFFFFFFFFFFFFFFFFFFFFFFFFFFFFFFFFFFFFFFFF AND PUSH20 0xFFFFFFFFFFFFFFFFFFFFFFFFFFFFFFFFFFFFFFFF AND DUP2 MSTORE PUSH1 0x20 ADD SWAP1 DUP2 MSTORE PUSH1 0x20 ADD PUSH0 KECCAK256 DUP2 SWAP1 SSTORE POP PUSH1 0x4 SLOAD PUSH1 0x5 PUSH0 DUP4 PUSH20 0xFFFFFFFFFFFFFFFFFFFFFFFFFFFFFFFFFFFFFFFF AND PUSH20 0xFFFFFFFFFFFFFFFFFFFFFFFFFFFFFFFFFFFFFFFF AND DUP2 MSTORE PUSH1 0x20 ADD SWAP1 DUP2 MSTORE PUSH1 0x20 ADD PUSH0 KECCAK256 DUP2 SWAP1 SSTORE POP TIMESTAMP PUSH1 0x1 SLOAD GT ISZERO PUSH2 0xA01 JUMPI PUSH0 SLOAD DUP3 PUSH2 0x9F6 SWAP2 SWAP1 PUSH2 0xD89 JUMP JUMPDEST PUSH1 0x3 DUP2 SWAP1 SSTORE POP PUSH2 0xA3F JUMP JUMPDEST PUSH0 TIMESTAMP PUSH1 0x1 SLOAD PUSH2 0xA10 SWAP2 SWAP1 PUSH2 0xCE8 JUMP JUMPDEST PUSH1 0x3 SLOAD PUSH2 0xA1D SWAP2 SWAP1 PUSH2 0xD1B JUMP JUMPDEST SWAP1 POP PUSH0 SLOAD DUP4 DUP3 PUSH2 0xA2D SWAP2 SWAP1 PUSH2 0xDB9 JUMP JUMPDEST PUSH2 0xA37 SWAP2 SWAP1 PUSH2 0xD89 JUMP JUMPDEST PUSH1 0x3 DUP2 SWAP1 SSTORE POP POP JUMPDEST PUSH0 PUSH1 0x3 SLOAD SUB PUSH2 0xA4C JUMPI PUSH0 DUP1 REVERT JUMPDEST PUSH32 0x0 PUSH20 0xFFFFFFFFFFFFFFFFFFFFFFFFFFFFFFFFFFFFFFFF AND PUSH4 0x70A08231 ADDRESS PUSH1 0x40 MLOAD DUP3 PUSH4 0xFFFFFFFF AND PUSH1 0xE0 SHL DUP2 MSTORE PUSH1 0x4 ADD PUSH2 0xAA5 SWAP2 SWAP1 PUSH2 0xEB7 JUMP JUMPDEST PUSH1 0x20 PUSH1 0x40 MLOAD DUP1 DUP4 SUB DUP2 DUP7 GAS STATICCALL ISZERO DUP1 ISZERO PUSH2 0xAC0 JUMPI RETURNDATASIZE PUSH0 DUP1 RETURNDATACOPY RETURNDATASIZE PUSH0 REVERT JUMPDEST POP POP POP POP PUSH1 0x40 MLOAD RETURNDATASIZE PUSH1 0x1F NOT PUSH1 0x1F DUP3 ADD AND DUP3 ADD DUP1 PUSH1 0x40 MSTORE POP DUP2 ADD SWAP1 PUSH2 0xAE4 SWAP2 SWAP1 PUSH2 0xEE4 JUMP JUMPDEST PUSH0 SLOAD PUSH1 0x3 SLOAD PUSH2 0xAF3 SWAP2 SWAP1 PUSH2 0xD1B JUMP JUMPDEST GT ISZERO PUSH2 0xAFD JUMPI PUSH0 DUP1 REVERT JUMPDEST PUSH0 SLOAD TIMESTAMP ADD PUSH1 0x1 DUP2 SWAP1 SSTORE POP TIMESTAMP PUSH1 0x2 DUP2 SWAP1 SSTORE POP POP POP JUMP JUMPDEST PUSH32 0x0 PUSH20 0xFFFFFFFFFFFFFFFFFFFFFFFFFFFFFFFFFFFFFFFF AND CALLER PUSH20 0xFFFFFFFFFFFFFFFFFFFFFFFFFFFFFFFFFFFFFFFF AND EQ PUSH2 0xB69 JUMPI PUSH0 DUP1 REVERT JUMPDEST TIMESTAMP PUSH1 0x1 SLOAD GT ISZERO PUSH2 0xB77 JUMPI PUSH0 DUP1 REVERT JUMPDEST DUP1 PUSH0 DUP2 SWAP1 SSTORE POP POP JUMP JUMPDEST PUSH0 PUSH2 0xB8D TIMESTAMP PUSH1 0x1 SLOAD PUSH2 0xB92 JUMP JUMPDEST SWAP1 POP SWAP1 JUMP JUMPDEST PUSH0 DUP2 DUP4 GT PUSH2 0xBA2 JUMPI DUP3 SWAP1 POP PUSH2 0xBA6 JUMP JUMPDEST DUP2 SWAP1 POP JUMPDEST SWAP3 SWAP2 POP POP JUMP JUMPDEST PUSH0 DUP1 REVERT JUMPDEST PUSH0 PUSH20 0xFFFFFFFFFFFFFFFFFFFFFFFFFFFFFFFFFFFFFFFF DUP3 AND SWAP1 POP SWAP2 SWAP1 POP JUMP JUMPDEST PUSH0 PUSH2 0xBD9 DUP3 PUSH2 0xBB0 JUMP JUMPDEST SWAP1 POP SWAP2 SWAP1 POP JUMP JUMPDEST PUSH2 0xBE9 DUP2 PUSH2 0xBCF JUMP JUMPDEST DUP2 EQ PUSH2 0xBF3 JUMPI PUSH0 DUP1 REVERT JUMPDEST POP JUMP JUMPDEST PUSH0 DUP2 CALLDATALOAD SWAP1 POP PUSH2 0xC04 DUP2 PUSH2 0xBE0 JUMP JUMPDEST SWAP3 SWAP2 POP POP JUMP JUMPDEST PUSH0 PUSH1 0x20 DUP3 DUP5 SUB SLT ISZERO PUSH2 0xC1F JUMPI PUSH2 0xC1E PUSH2 0xBAC JUMP JUMPDEST JUMPDEST PUSH0 PUSH2 0xC2C DUP5 DUP3 DUP6 ADD PUSH2 0xBF6 JUMP JUMPDEST SWAP2 POP POP SWAP3 SWAP2 POP POP JUMP JUMPDEST PUSH0 DUP2 SWAP1 POP SWAP2 SWAP1 POP JUMP JUMPDEST PUSH2 0xC47 DUP2 PUSH2 0xC35 JUMP JUMPDEST DUP3 MSTORE POP POP JUMP JUMPDEST PUSH0 PUSH1 0x20 DUP3 ADD SWAP1 POP PUSH2 0xC60 PUSH0 DUP4 ADD DUP5 PUSH2 0xC3E JUMP JUMPDEST SWAP3 SWAP2 POP POP JUMP JUMPDEST PUSH2 0xC6F DUP2 PUSH2 0xC35 JUMP JUMPDEST DUP2 EQ PUSH2 0xC79 JUMPI PUSH0 DUP1 REVERT JUMPDEST POP JUMP JUMPDEST PUSH0 DUP2 CALLDATALOAD SWAP1 POP PUSH2 0xC8A DUP2 PUSH2 0xC66 JUMP JUMPDEST SWAP3 SWAP2 POP POP JUMP JUMPDEST PUSH0 PUSH1 0x20 DUP3 DUP5 SUB SLT ISZERO PUSH2 0xCA5 JUMPI PUSH2 0xCA4 PUSH2 0xBAC JUMP JUMPDEST JUMPDEST PUSH0 PUSH2 0xCB2 DUP5 DUP3 DUP6 ADD PUSH2 0xC7C JUMP JUMPDEST SWAP2 POP POP SWAP3 SWAP2 POP POP JUMP JUMPDEST PUSH32 0x4E487B7100000000000000000000000000000000000000000000000000000000 PUSH0 MSTORE PUSH1 0x11 PUSH1 0x4 MSTORE PUSH1 0x24 PUSH0 REVERT JUMPDEST PUSH0 PUSH2 0xCF2 DUP3 PUSH2 0xC35 JUMP JUMPDEST SWAP2 POP PUSH2 0xCFD DUP4 PUSH2 0xC35 JUMP JUMPDEST SWAP3 POP DUP3 DUP3 SUB SWAP1 POP DUP2 DUP2 GT ISZERO PUSH2 0xD15 JUMPI PUSH2 0xD14 PUSH2 0xCBB JUMP JUMPDEST JUMPDEST SWAP3 SWAP2 POP POP JUMP JUMPDEST PUSH0 PUSH2 0xD25 DUP3 PUSH2 0xC35 JUMP JUMPDEST SWAP2 POP PUSH2 0xD30 DUP4 PUSH2 0xC35 JUMP JUMPDEST SWAP3 POP DUP3 DUP3 MUL PUSH2 0xD3E DUP2 PUSH2 0xC35 JUMP JUMPDEST SWAP2 POP DUP3 DUP3 DIV DUP5 EQ DUP4 ISZERO OR PUSH2 0xD55 JUMPI PUSH2 0xD54 PUSH2 0xCBB JUMP JUMPDEST JUMPDEST POP SWAP3 SWAP2 POP POP JUMP JUMPDEST PUSH32 0x4E487B7100000000000000000000000000000000000000000000000000000000 PUSH0 MSTORE PUSH1 0x12 PUSH1 0x4 MSTORE PUSH1 0x24 PUSH0 REVERT JUMPDEST PUSH0 PUSH2 0xD93 DUP3 PUSH2 0xC35 JUMP JUMPDEST SWAP2 POP PUSH2 0xD9E DUP4 PUSH2 0xC35 JUMP JUMPDEST SWAP3 POP DUP3 PUSH2 0xDAE JUMPI PUSH2 0xDAD PUSH2 0xD5C JUMP JUMPDEST JUMPDEST DUP3 DUP3 DIV SWAP1 POP SWAP3 SWAP2 POP POP JUMP JUMPDEST PUSH0 PUSH2 0xDC3 DUP3 PUSH2 0xC35 JUMP JUMPDEST SWAP2 POP PUSH2 0xDCE DUP4 PUSH2 0xC35 JUMP JUMPDEST SWAP3 POP DUP3 DUP3 ADD SWAP1 POP DUP1 DUP3 GT ISZERO PUSH2 0xDE6 JUMPI PUSH2 0xDE5 PUSH2 0xCBB JUMP JUMPDEST JUMPDEST SWAP3 SWAP2 POP POP JUMP JUMPDEST PUSH2 0xDF5 DUP2 PUSH2 0xBCF JUMP JUMPDEST DUP3 MSTORE POP POP JUMP JUMPDEST PUSH0 PUSH1 0x40 DUP3 ADD SWAP1 POP PUSH2 0xE0E PUSH0 DUP4 ADD DUP6 PUSH2 0xDEC JUMP JUMPDEST PUSH2 0xE1B PUSH1 0x20 DUP4 ADD DUP5 PUSH2 0xC3E JUMP JUMPDEST SWAP4 SWAP3 POP POP POP JUMP JUMPDEST PUSH0 DUP2 ISZERO ISZERO SWAP1 POP SWAP2 SWAP1 POP JUMP JUMPDEST PUSH2 0xE36 DUP2 PUSH2 0xE22 JUMP JUMPDEST DUP2 EQ PUSH2 0xE40 JUMPI PUSH0 DUP1 REVERT JUMPDEST POP JUMP JUMPDEST PUSH0 DUP2 MLOAD SWAP1 POP PUSH2 0xE51 DUP2 PUSH2 0xE2D JUMP JUMPDEST SWAP3 SWAP2 POP POP JUMP JUMPDEST PUSH0 PUSH1 0x20 DUP3 DUP5 SUB SLT ISZERO PUSH2 0xE6C JUMPI PUSH2 0xE6B PUSH2 0xBAC JUMP JUMPDEST JUMPDEST PUSH0 PUSH2 0xE79 DUP5 DUP3 DUP6 ADD PUSH2 0xE43 JUMP JUMPDEST SWAP2 POP POP SWAP3 SWAP2 POP POP JUMP JUMPDEST PUSH0 PUSH1 0x60 DUP3 ADD SWAP1 POP PUSH2 0xE95 PUSH0 DUP4 ADD DUP7 PUSH2 0xDEC JUMP JUMPDEST PUSH2 0xEA2 PUSH1 0x20 DUP4 ADD DUP6 PUSH2 0xDEC JUMP JUMPDEST PUSH2 0xEAF PUSH1 0x40 DUP4 ADD DUP5 PUSH2 0xC3E JUMP JUMPDEST SWAP5 SWAP4 POP POP POP POP JUMP JUMPDEST PUSH0 PUSH1 0x20 DUP3 ADD SWAP1 POP PUSH2 0xECA PUSH0 DUP4 ADD DUP5 PUSH2 0xDEC JUMP JUMPDEST SWAP3 SWAP2 POP POP JUMP JUMPDEST PUSH0 DUP2 MLOAD SWAP1 POP PUSH2 0xEDE DUP2 PUSH2 0xC66 JUMP JUMPDEST SWAP3 SWAP2 POP POP JUMP JUMPDEST PUSH0 PUSH1 0x20 DUP3 DUP5 SUB SLT ISZERO PUSH2 0xEF9 JUMPI PUSH2 0xEF8 PUSH2 0xBAC JUMP JUMPDEST JUMPDEST PUSH0 PUSH2 0xF06 DUP5 DUP3 DUP6 ADD PUSH2 0xED0 JUMP JUMPDEST SWAP2 POP POP SWAP3 SWAP2 POP POP JUMP INVALID LOG2 PUSH5 0x6970667358 0x22 SLT KECCAK256 0xB5 PUSH32 0x2940F5B12FD2A0CBBE2BF61729ADC772B0A928D557C94C6BAF8D936D496D6473 PUSH16 0x6C634300081400330000000000000000 "
		},
		"gasEstimates": {
			"creation": {
				"codeDepositCost": "781800",
				"executionCost": "infinite",
				"totalCost": "infinite"
			},
			"external": {
				"earned(address)": "infinite",
				"getReward()": "infinite",
				"lastTimeRewardsApplicable()": "2578",
				"notifyRewrdsAmount(uint256)": "infinite",
				"rewardperToken()": "infinite",
				"setRewardsDuration(uint256)": "infinite",
				"stake(uint256)": "infinite",
				"withdraw(uint256)": "infinite"
			},
			"internal": {
				"min(uint256,uint256)": "63"
			}
		},
		"methodIdentifiers": {
			"earned(address)": "008cc262",
			"getReward()": "3d18b912",
			"lastTimeRewardsApplicable()": "edf26bc7",
			"notifyRewrdsAmount(uint256)": "cb7032ab",
			"rewardperToken()": "baf36830",
			"setRewardsDuration(uint256)": "cc1a378f",
			"stake(uint256)": "a694fc3a",
			"withdraw(uint256)": "2e1a7d4d"
		}
	},
	"abi": [
		{
			"inputs": [
				{
					"internalType": "address",
					"name": "_stakingtoken",
					"type": "address"
				},
				{
					"internalType": "address",
					"name": "_rewardstoken",
					"type": "address"
				}
			],
			"stateMutability": "nonpayable",
			"type": "constructor"
		},
		{
			"inputs": [
				{
					"internalType": "address",
					"name": "_account",
					"type": "address"
				}
			],
			"name": "earned",
			"outputs": [
				{
					"internalType": "uint256",
					"name": "",
					"type": "uint256"
				}
			],
			"stateMutability": "view",
			"type": "function"
		},
		{
			"inputs": [],
			"name": "getReward",
			"outputs": [],
			"stateMutability": "nonpayable",
			"type": "function"
		},
		{
			"inputs": [],
			"name": "lastTimeRewardsApplicable",
			"outputs": [
				{
					"internalType": "uint256",
					"name": "",
					"type": "uint256"
				}
			],
			"stateMutability": "view",
			"type": "function"
		},
		{
			"inputs": [
				{
					"internalType": "uint256",
					"name": "_amount",
					"type": "uint256"
				}
			],
			"name": "notifyRewrdsAmount",
			"outputs": [],
			"stateMutability": "nonpayable",
			"type": "function"
		},
		{
			"inputs": [],
			"name": "rewardperToken",
			"outputs": [
				{
					"internalType": "uint256",
					"name": "",
					"type": "uint256"
				}
			],
			"stateMutability": "view",
			"type": "function"
		},
		{
			"inputs": [
				{
					"internalType": "uint256",
					"name": "_duration",
					"type": "uint256"
				}
			],
			"name": "setRewardsDuration",
			"outputs": [],
			"stateMutability": "nonpayable",
			"type": "function"
		},
		{
			"inputs": [
				{
					"internalType": "uint256",
					"name": "_amount",
					"type": "uint256"
				}
			],
			"name": "stake",
			"outputs": [],
			"stateMutability": "nonpayable",
			"type": "function"
		},
		{
			"inputs": [
				{
					"internalType": "uint256",
					"name": "_amount",
					"type": "uint256"
				}
			],
			"name": "withdraw",
			"outputs": [],
			"stateMutability": "nonpayable",
			"type": "function"
		}
	]
}